:020000040800F2
:1000000000200020754E0008C54E0008C54E0008AF
:1000100000000000000000000000000000000000E0
:10002000000000000000000000000000C54E0008B5
:100030000000000000000000C54E0008C54E00088A
:10004000C54E0008C54E0008C54E0008C54E000844
:10005000C54E0008C54E0008C54E0008C54E000834
:10006000C54E0008C54E0008C54E0008C54E000824
:100070002D1D0008C54E00080000000005410008C5
:1000800000000000C54E0008000000000000000055
:10009000C54E000800000000C54E0008C54E00080F
:1000A000C54E0008C54E0008C54E0008C54E0008E4
:1000B000412F0008C5210008C54E0008C54E0008A4
:1000C0000448054B10B5834203D0044B002B00D0ED
:1000D000984710BD68000020680000200000000064
:1000E00006480749091A8B10C90FC91810B54910DD
:1000F00003D0044B002B00D0984710BD68000020AF
:10010000680000200000000010B5074C2378002B89
:1001100009D1FFF7D5FF054B002B02D0044800E0C2
:1001200000BF0123237010BD680000200000000004
:10013000C84E0008054B10B5002B03D004490548F4
:1001400000E000BFFFF7CCFF10BDC046000000007C
:100150006C000020C84E000870B50C4D0C4E761B8C
:10016000B61005D0002408CD01349847A642FAD134
:1001700004F0AAFE074D084E761BB61005D00024E9
:1001800008CD01349847A642FAD170BDCC4F000883
:10019000CC4F0008CC4F0008D04F0008F0B5050048
:1001A00083074AD0541E002A44D0CEB20300032253
:1001B00002E00135013C3DD301332E701342F8D1EA
:1001C000032C2FD9FF220A40150215432A04154398
:1001D0000F2C35D92700103F3F093E01B4461E00C1
:1001E0001A0010366644156055609560D56010326F
:1001F000B242F8D10F260C2201373F012640DB190D
:100200003700224217D03E1FB608B400A4461A0099
:100210001C1D644420C2A242FCD103240136B60056
:100220009B193C40002C05D0C9B21C191970013330
:100230009C42FBD1F0BD3400F4E714000300BFE79B
:100240002700E0E70CB400B59DB002910691094982
:100250001EAB07910491084904CB059102A90193B3
:1002600000F052F90023029A13701DB008BC02B0CE
:100270001847C046FFFFFF7F0802FFFF0EB400B51E
:100280000B499CB0079104910A491DAB05910A499D
:1002900004CB02900690086802A9019300F034F99B
:1002A0000023029A13701CB008BC03B01847C04664
:1002B000FFFFFF7F0802FFFF0000002010B583074B
:1002C00027D00378002B26D00300032102E01A7800
:1002D000002A1CD001330B42F9D119680F4A104C87
:1002E0008A188A4322420FD1043319680B4A8A18AC
:1002F0008A43224208D104331968084A8A188A437B
:100300002242F1D000E001331A78002AFBD1181AFA
:1003100010BD0300E1E70020FAE7C046FFFEFEFE45
:1003200080808080F0B546464F46D646C0B58E6880
:1003300081460C0090461D0008689E4239D89022E4
:100340008B89D200134211D135002A00414600F0BA
:10035000A9FCA36800209E1B2368A6609C466544F8
:1003600025601CBC90469946A246F0BD0969421A18
:1003700092466269681C5700BF18FA0FD7197F10A0
:1003800050443A00B84201D9070002005B0512D57B
:100390001100484600F03AFD061E1FD05246216962
:1003A00000F02CFCA389124A134080221343A3813E
:1003B00006E01E00C9E7484600F08EFD061E09D083
:1003C0003000534650446761FF1A266120602E00BA
:1003D000A760BAE72169484600F0C2FC0C234A46F0
:1003E000136040220120A38940421343A381B8E750
:1003F0007FFBFFFFF0B54E464546DE465746E0B56B
:10040000936883B001900D009146002B6BD0176864
:1004100008688C6844E09022AB89D20013422ED049
:100420002969421A9346686942001218D00F82184F
:10043000701C521058449046904201D980460200E8
:100440008020C000034237D01100019800F0DEFC8C
:10045000041E53D05A46296900F0D0FBAB89294AC3
:10046000134080221343AB81434620005A462C613F
:10047000B046340058446B619B1A2860AB6042461A
:10048000514600F00FFCAB681C1B2B68AC6043446A
:100490002B6018004B469B689E1B4B469E6022D0EB
:1004A0003B687E689A460837A046002EF8D0A642E0
:1004B000B1D23400B046E2E7019800F00DFD041E11
:1004C000D2D1019C2969200000F04AFC0C23236052
:1004D0004022AB8901201343AB814A4600234042AE
:1004E0009360536003E000234A460020536003B04A
:1004F0003CBC90469946A246AB46F0BD0C23019AFF
:100500001360E5E77FFBFFFFF0B54E46DE4657463A
:100510004546E0B5A1B0049003911C008B8991463B
:100520001B0604D50B690593002B00D119E10023AC
:1005300008AD6B6120336B761033AB762F3B98465A
:100540004B461B780794924F002B00D186E0252B59
:1005500000D104E14E4603E0252B00D18BE02600BC
:100560007378741C002BF7D14B46E31A9A4675D06A
:1005700053464A4603990498FFF7D4FE431C6DD0B6
:100580006B6953446B617378002B67D001220023A1
:1005900052426A60443201342B60EB60AB60AB5472
:1005A000AB6506E04346C01B834034002A68134312
:1005B0002B6021780522380000F0E0FA661C002844
:1005C000F0D12B68B246DA0602D543222021A95485
:1005D0001A0702D543222B21A95421782A2950D168
:1005E000079A111D12680791002A00DA9AE0EA6062
:1005F0006178A61C2E295CD0664B03221800994610
:1006000000F0BCFA002800D171E04B46C01A40232C
:1006100083402A68317813432B600622731C5E489E
:100620009946297600F0AAFA00286AD05B4B002B85
:1006300000D170E007AB0093039A594B290004984E
:1006400000E000BF83465B46013307D06B695B4423
:100650006B614B461B78002B00D078E7039B9B898E
:100660005B0600D58CE0686921B03CBC9046994699
:10067000A246AB46F0BD4B46E31A9A4600D185E749
:1006800076E70A00303AA246092AB3D8EB68180088
:1006900001E03400013683001B1831785B009818A4
:1006A0000A00303A092AF4D9B246E860A61C2E297D
:1006B000A2D1534659782A293AD1079B1A1D07928D
:1006C00052469178D61C022294461B68E2446B6025
:1006D000002B00DB90E701235B426B602D4B032274
:1006E0001800994600F04AFA002800D08DE7B1467C
:1006F0005646317806222848297600F03FFA00282D
:1007000094D107AB0093039A254B2900049800F07D
:10071000E1F8834697E70722079B073393430833A3
:10072000079393E75242EA60022213432B605FE78C
:100730000A000023303A6B601800092A01D91CE036
:100740001E0083001B1871785B0098180A00303A6D
:10075000731C092AF4D99A46023668604CE74C4665
:1007600014E7402100F052FB039B18601861002839
:1007700009D04023039A5361D9E6B24601363BE7DC
:100780000120404270E70C23049A013813606BE7A4
:10079000884F0008904F0008944F000800000000A8
:1007A00025030008F0B54F464646D646C0B51F00A3
:1007B000089B914698468A680B6906000C00934294
:1007C00000DA13004A4613604322A25C002A02D0DA
:1007D0004A460133136023689A065AD54B461B6874
:1007E00006209A1C4B461A6023681900184208D14B
:1007F000E16800258A1A19218A461900A244002AB4
:100800003FDC4323E35C5A1E93418A060AD530201D
:10081000E1184331087045215A1C615CA21843322B
:10082000023311702200390043323000C047431CAC
:1008300019D006232068A26821690340042B30D018
:100840008A423ADD00239946521A91441A3400250F
:1008500002E001354D4530DA012322003900300035
:10086000C047431CF5D1012040421CBC904699462C
:10087000A246F0BD4B46E2681B680135D31AAB4275
:1008800020DD0123524639003000C047431CF1D11E
:10089000E9E706221A4212D04323E35C5A1E934131
:1008A000C0E74B46E0681B68C31AD843C01718401E
:1008B00081468A42C8DC002BC8DC0020D5E74A46C6
:1008C000126895E743232168E35C5A1E93418A0628
:1008D0009DD4A7E7F0B557469A4643239C464E461B
:1008E0004546DE468C446346E0B587B003930B7EF5
:1008F000914680460C00109A6E2B00D1D8E000D8AB
:1009000071E0732B00D11AE100D881E0752B00D182
:10091000FFE0782B00D00BE10B6878204521605474
:1009200094498B46116840C91160180603D45806D3
:1009300001D53604360CDA0702D520221343236092
:100940001027002E00D1C2E043230022E254636846
:10095000A360002B00DAC5E00422216891432160E6
:10096000002E00D083E0002B00D0BDE0039D082FB7
:1009700000D18CE0039B5B1B2361534605AA0093C7
:1009800021004B464046FFF70DFF431C22D0236950
:100990002A0049464046D047431C1BD02268059890
:1009A000E368920700D47FE01A1A002A00DC7BE09B
:1009B00026000025193606E0E368059801351A1A65
:1009C000AA4200DC70E00123320049464046D0478D
:1009D000431CF1D10120404207B03CBC90469946EF
:1009E000A246AB46F0BD632B00D184E01FD8002B9C
:1009F00069D0582B00D09BE0452163545E492368A1
:100A00008B46116840C91160180600D48FE792E741
:100A10006F2B7ED0702B00D08AE0202309687820CD
:100A20000B4345212360605452498B467AE7642B7F
:100A300001D0692B7CD111682368081D10601D0648
:100A40004AD50A681600002A03DB4B4B0A279B464F
:100A50007DE743222D21A15462687642A260002ADC
:100A600002DB042293432360434B0A279B46039DEA
:100A700000E006003900300000F00AFB5B465B5CDA
:100A8000013D2B70BE42F4D2082F00D072E72368DC
:100A9000DB0700D46EE763682269934200DD69E7F3
:100AA0003023013D2B7065E7984295DA180093E7F3
:100AB000136809681D1D606915601B680E0601D466
:100AC00049064BD418600023039D236155E720237A
:100AD00022689A43226037E75D06B2D500228E5E17
:100AE0003200B0E7002EC2D15B4625001A784223BF
:100AF0004235E2543BE713682500191D11601A685E
:100B00004223E254413B4235236143230022E25415
:100B100033E7116820680D1D1560060601D44006F4
:100B20001ED40E686F2B1DD0134B0A279B460BE774
:100B300042222500A354012342352361E5E71368CF
:100B4000191D11601D6862680021280000F016F868
:100B500000280BD0401B60602061D6E71880B2E708
:100B60000E88DFE7044B08279B46EDE660682061AE
:100B7000CBE7C046B04F00089C4F000870B5CDB21F
:100B8000830734D0531E002A1BD00278AA4219D002
:100B9000032404E0013B14D30278AA4212D00130AE
:100BA0002042F7D1032B0ED8002B0AD00278AA429C
:100BB00008D0C31802E00278AA4203D00130834271
:100BC000F9D1002070BDFF220C06240C11402143F6
:100BD0000C04084E0C4302680749624051189143C7
:100BE0003142E3D1043B0430032BF4D8DCE713009B
:100BF000D8E7C04680808080FFFEFEFEF0B5C64686
:100C000000B50F2A43D90B00032603431E400C00F6
:100C10000300002E40D11500103D2D09AC462D01DA
:100C2000A846804400E03B00676825685F60E7688D
:100C30001D60DF601F00A56810379D6010344345BC
:100C4000F1D165460F230C2401352D0149191340BC
:100C50004519144223D08C59AC5104369C1B032CEB
:100C6000F9D80324043B9B0801339B002240ED1874
:100C7000C918561E002A07D0002300E02300CA5CD2
:100C80005C1CEA549E42F9D104BC9046F0BD0500BC
:100C9000561E002AF0D1F7E7561E0500ECE71A00B1
:100CA000F6E7C046F0B5C64600B588420CD98B18A9
:100CB000984209D2531E002A03D0CA5CC254013B99
:100CC000FBD204BC9046F0BD0F2A0CD80500561E7E
:100CD000002AF6D0002300E02300CA5C5C1CEA5422
:100CE0009E42F9D1EDE70B00032603431E400C00A2
:100CF0000300002E2ED11500103D2D09AC462D010C
:100D0000A846804400E02B001D00276810351F60B6
:100D100067685F60A7689F60E7681034DF604345DD
:100D2000F1D165460F230C2401352D0149191340DB
:100D30004519144211D08C59AC5104369C1B032C1C
:100D4000F9D80324043B9B0801339B00ED18C91814
:100D50002240BCE7561E0500BCE71A00B7E7C046B4
:100D600070B50500002915D00C1F2368002B27DB68
:100D7000280000F0EBF8244B1A68002A05D0A242A4
:100D80000CD921686018824224D0626028001C605F
:100D900000F0DEF870BDA34203D81A005368002BA0
:100DA000F9D111685018A0421BD027D821686018CB
:100DB000834207D063605460280000F0C9F8E9E777
:100DC000E418D5E718685B68844661442160636075
:100DD0005460F1E7106852688446614421606260A3
:100DE000D4E720680918501811608342E4D11868CC
:100DF0005B688446614411605360DDE70C23280082
:100E00002B6000F0A5F8C5E784000020F8B50323A7
:100E1000CD1C9D43083506000C2D2AD20C25A94275
:100E200029D8300000F092F82A4F3A68002A0AD0F8
:100E300013685B1B04D441E023685B1B1FD52200B1
:100E40005468002CF8D17B68002B3DD0290030007D
:100E500000F06AF8431C2AD00323C41C9C43A04220
:100E600005D0211A300000F05FF8431C1FD0256028
:100E700010E0002DD3DA0C2300203360F8BD0B2BDB
:100E800005D86368A2421DD0536003E014002360BC
:100E9000E4182560300000F05BF8200007220B30DA
:100EA000231D9043C21AE9D01B1AA350E6E70C2376
:100EB0003000336000F04CF80020DFE70B2BE5D862
:100EC000140053683B60E5E70021300000F02CF887
:100ED0007860BBE784000020F8B507000C0015001F
:100EE00000291BD0002A15D000F034F82600A842B3
:100EF00001D33000F8BD29003800FFF787FF061E38
:100F0000F7D021002A00FFF779FE21003800FFF713
:100F100027FFEEE7FFF724FF0026EAE71100FFF7BF
:100F200075FF0600E5E7C046002370B5064C0500D6
:100F30000800236000F018F8431C00D070BD23683F
:100F4000002BFBD02B60F9E7300900207047C0462A
:100F50007047C0460B1F1B68181F002B00DB704733
:100F60000B58C018FBE7C046044A1368002B03D097
:100F70001818106018007047014BF9E78C0000202A
:100F800038090020002243088B4274D303098B42A6
:100F90005FD3030A8B4244D3030B8B4228D3030C49
:100FA0008B420DD3FF22090212BA030C8B4202D3EB
:100FB0001212090265D0030B8B4219D300E0090A13
:100FC000C30B8B4201D3CB03C01A5241830B8B421C
:100FD00001D38B03C01A5241430B8B4201D34B0305
:100FE000C01A5241030B8B4201D30B03C01A52416A
:100FF000C30A8B4201D3CB02C01A5241830A8B42EF
:1010000001D38B02C01A5241430A8B4201D34B02D7
:10101000C01A5241030A8B4201D30B02C01A52413B
:10102000CDD2C3098B4201D3CB01C01A52418309EF
:101030008B4201D38B01C01A524143098B4201D329
:101040004B01C01A524103098B4201D30B01C01A54
:101050005241C3088B4201D3CB00C01A52418308CE
:101060008B4201D38B00C01A524143088B4201D3FB
:101070004B00C01A5241411A00D20146524110465B
:101080007047FFE701B5002000F006F802BDC0463A
:101090000029F7D076E770477047C046002B11D182
:1010A000002A0FD1002900D1002802D00021C94315
:1010B000081C07B4024802A14018029003BDC046B4
:1010C000D9FFFFFF03B4684601B5029800F006F8A7
:1010D000019B9E4602B00CBC7047C046F0B5574617
:1010E0004E464546DE46E0B504000D009246994660
:1010F00083B08B4230D82DD04946504600F0D8F806
:1011000029000600200000F0D3F8331A9846203B4F
:101110009B4633D45A465346934042461F0053469B
:1011200093401E00AF423AD8AF4200D178E05B4610
:10113000A41BBD41002B00DA75E0002200230092C1
:10114000019301235A469340019301234246934061
:10115000009328E08242CFD900220023009201931D
:101160000C9B002B01D01C605D600098019903B0BE
:101170003CBC90469946A246AB46F0BD4246202371
:101180009B1A5246DA40414613004A468A401700ED
:1011900042461F43534693401E00AF42C4D900222B
:1011A0000023009201934346002BD9D0FB0772081D
:1011B0001A4346467B080EE0AB4201D1A2420CD84E
:1011C000A41A9D41012024196D410021013E2418DB
:1011D0004D41002E06D0AB42EED9013E24196D419F
:1011E000002EF8D1009801995B4600196941002B47
:1011F00024DB2B005A464446D3402A00E2401C0020
:101200005B461500002B2ADB26009E40330026009B
:101210004746BE403200801A9941009001919FE7F5
:10122000A342BCD883E74246202300219B1A002218
:10123000009101920122DA40019286E74246202382
:101240009B1A2A0046469A402300F3404446134323
:101250002A00E2401C005B461500002BD4DA42460F
:101260002F002023260097409B1ADE403B0033438B
:10127000CDE7C0461C2101231B04984201D3000C7A
:1012800010391B0A984201D3000A08391B099842F9
:1012900001D30009043902A2105C40187047C0460F
:1012A000040302020101010100000000000000002F
:1012B00010B5002903D1FFF7DDFF203002E0081C44
:1012C000FFF7D8FF10BDC04680B584B000AF78608E
:1012D000074B996B064B7A680A439A63044B9B6BE6
:1012E0007A681340FB60FB68C046BD4604B080BD11
:1012F0000010024080B584B000AF7860074B596B96
:10130000064B7A680A435A63044B5B6B7A68134056
:10131000FB60FB68C046BD4604B080BD00100240C3
:1013200080B582B000AF7860064B1B68064A134058
:101330001900044B7A680A431A60C046BD4602B0E1
:1013400080BDC04600700040FFE7FFFF80B500AFE2
:10135000044B1A68034B01210A431A60C046BD467C
:1013600080BDC0460010024080B500AF054B1B6831
:1013700004221340042B01D1012300E000231800B4
:10138000BD4680BD0010024080B582B000AF7860DD
:10139000064B5B68064A134019007B681A02034B30
:1013A0000A435A60C046BD4602B080BD00100240EC
:1013B000FFE0FFFF80B582B000AF7860064BDB68CE
:1013C000032293431900044B7A680A43DA60C0464B
:1013D000BD4602B080BDC0460010024080B500AFDF
:1013E000034BDB680C2213401800BD4680BDC0468D
:1013F0000010024080B582B000AF7860064BDB6819
:10140000F02293431900044B7A680A43DA60C0461D
:10141000BD4602B080BDC0460010024080B582B01B
:1014200000AF7860064BDB68064A13401900044B96
:101430007A680A43DA60C046BD4602B080BDC04645
:1014400000100240FFF8FFFF80B582B000AF786067
:10145000064BDB68064A13401900044B7A680A43BE
:10146000DA60C046BD4602B080BDC04600100240F2
:10147000FFC7FFFF80B582B000AF7860084BDB6C20
:101480007A68120CD2431A4011007B681B041A0CB4
:10149000034B0A43DA64C046BD4602B080BDC04675
:1014A0000010024080B582B000AF7860064BDB6C64
:1014B000064A13401900044B7A680A43DA64C046AE
:1014C000BD4602B080BDC04600100240FFF3FFFFE2
:1014D00080B582B000AF78600A4BDB6C7A68110986
:1014E000FF2212030A40D2431A4011007B681A01FE
:1014F000FF231B031A40034B0A43DA64C046BD4670
:1015000002B080BD0010024080B500AF044B1A68E5
:10151000034B802149040A431A60C046BD4680BD82
:101520000010024080B500AF074B1A6880239B046F
:101530001A4080239B049A4201D1012300E000233A
:101540001800BD4680BDC0460010024080B584B082
:1015500000AFF860B9607A60084BDB68084A134056
:101560001900FA68BB681A437B681A43034B0A43A5
:10157000DA60C046BD4604B080BDC04600100240DF
:10158000FFFF02FF80B582B000AF7860064B1B689A
:10159000012293431900044B7A680A431A60C0463B
:1015A000BD4602B080BDC0460020024080B500AFFD
:1015B000034B1B68012213401800BD4680BDC04686
:1015C0000020024080B584B000AF786002F072FD68
:1015D0000300FB60C04602F06DFD0200FB681100D5
:1015E000180002F04FFD02007B689342F3D8C0461A
:1015F000C046BD4604B080BD80B500AF0120FFF7F6
:10160000C1FFC046FFF7D2FF0300012BFAD18023B0
:101610001B011800FFF784FEFFF798FEC046FFF796
:10162000A3FE0300012BFAD11020FFF7ADFE8023AB
:10163000DB031A0000210020FFF788FFFFF764FF9B
:10164000C046FFF76FFF0300012BFAD10320FFF71D
:10165000B1FEC046FFF7C2FE03000C2BFAD10020FA
:10166000FFF7C8FE0020FFF7D9FE0020FFF7ECFED1
:101670000B4B180003F006FB094B180003F012FB9C
:101680000020FFF70FFFC0231B031800FFF7F2FE37
:10169000C0239B021800FFF71BFFC046BD4680BD5C
:1016A00000366E0180B500AF0120FFF723FE8023D6
:1016B0005B051800FFF708FEFFF79EFF00F0F0FD46
:1016C000C046BD4680BD000080B5C2B000AF02F08C
:1016D000F1FC03007A1DFF321360174B1B687A1D63
:1016E000FF3212681100180002F0CCFC0200FA234D
:1016F0009B009A421CD3104B7A1DFF3212681A606D
:101700000E4B1B68013301221A400C4B1A600B4B25
:101710001B68DBB2180000F0EAFD094A3B1D11000E
:101720001800FEF7ABFD3B1D180001F049FC00E07E
:10173000C046BD4642B080BD90000020940000200D
:10174000E04E000880B5C0B000AFFFF7ABFF02F07D
:10175000D1FC01F0D7FB01F0A5FC00F015FD00F075
:101760002BFA01F07BF9084A3B0011001800FEF744
:1017700085FD3B00180001F023FCFFF7A5FF01F0F9
:101780009DFC01F075F9F8E7F04E000880B582B0D5
:1017900000AF72B6C046002000F0A9FD00237B60B8
:1017A00002E07B6801337B607B68084A9342F8D98A
:1017B000012000F09CFD00233B6002E03B68013308
:1017C0003B603B68014A9342F8D9E4E73F420F008F
:1017D00080B582B000AF0200FB1D1A70FB1D1B78A4
:1017E0007F2B09D8FB1D1B781A001F231A40044BBE
:1017F000012191400A001A60C046BD4602B080BD7A
:1018000000E100E090B583B000AF02003960FB1D3D
:101810001A70FB1D1B787F2B28D82F4AFB1D1B78C5
:101820005BB29B08C0339B009B58FA1D12781100D5
:1018300003220A40D200FF2191400A00D2431A40FD
:1018400011003B689B01FF221A40FB1D1B7818000A
:1018500003230340DB009A401F48FB1D1B785BB24B
:101860009B080A43C0339B001A5031E01B4AFB1D02
:101870001B7819000F230B40083B9B0806339B0085
:10188000D31804331B68FA1D1278110003220A4092
:10189000D200FF2191400A00D2431A4011003B6858
:1018A0009B01FF221A40FB1D1B78180003230340F5
:1018B000DB009A400948FB1D1B781C000F232340C6
:1018C000083B9B080A4306339B00C31804331A6085
:1018D000C046BD4603B090BD00E100E000ED00E071
:1018E00080B582B000AF786039607B681B699B006F
:1018F0009A083B681A437B681A61C046BD4602B02D
:1019000080BD80B582B000AF786039607B685B696C
:10191000072293431A003B681A437B685A61C0460A
:10192000BD4602B080BD000080B582B000AF7860D7
:1019300039607B68DB68054A1A403B681A437B685C
:10194000DA60C046BD4602B080BDC0463FF2FFFF30
:1019500080B582B000AF786039603B685B035A0B9A
:101960007B689A62C046BD4602B080BD80B582B039
:1019700000AF786039607B68DB68054A1A403B68D5
:101980001A437B68DA60C046BD4602B080BDC046DF
:10199000FFDFFFFF80B582B000AF786039607B6801
:1019A000DB68054A1A403B681A437B68DA60C04628
:1019B000BD4602B080BDC046FFEFFFFF80B582B0DC
:1019C00000AF78607B689B68044A134001221A4389
:1019D0007B689A60C046BD4602B080BDE8FFFF7FCD
:1019E00080B582B000AF78607B689B68044A134082
:1019F00002221A437B689A60C046BD4602B080BD91
:101A0000E8FFFF7F80B582B000AF78607B689B689D
:101A100001221340013B5A425341DBB21800BD463C
:101A200002B080BD80B582B000AF78607B689B68F3
:101A300002221340023B5A425341DBB21800BD461A
:101A400002B080BD80B582B000AF78607B689B68D3
:101A5000054A1340802212061A437B689A60C046EA
:101A6000BD4602B080BDC046E8FFFF7F80B582B0B2
:101A700000AF78607B689B68DB0FDB078022120673
:101A8000944663445A425341DBB21800BD4602B04B
:101A900080BD000080B582B000AF78607B689B6835
:101AA000044A134004221A437B689A60C046BD462C
:101AB00002B080BDE8FFFF7F80B582B000AF7860E4
:101AC0007B689B6804221340043B5A425341DBB2BB
:101AD0001800BD4602B080BD80B582B000AF78600E
:101AE0007B681B6C9BB21800BD4602B080BD80B500
:101AF00082B000AF78607B681B6801221340013B15
:101B00005A425341DBB21800BD4602B080BD80B5D9
:101B100082B000AF78607B681B6804221340043BEE
:101B20005A425341DBB21800BD4602B080BD80B5B9
:101B300082B000AF78607B6808221A60C046BD465C
:101B400002B080BD80B582B000AF78607B685B6812
:101B500010221A437B685A60C046BD4602B080BD61
:101B600080B584B000AF7860074B596B064B7A683C
:101B70000A435A63044B5B6B7A681340FB60FB6853
:101B8000C046BD4604B080BD0010024080B584B0A0
:101B900000AF7860074BD96A064B7A680A43DA626D
:101BA000044BDB6A7A681340FB60FB68C046BD46A5
:101BB00004B080BD0010024080B586B000AF3B008D
:101BC000180018231A000021FEF7E8FA0120FFF799
:101BD000DDFF3B0010221A603B0003225A603B00ED
:101BE00000221A613A00A023DB051100180002F060
:101BF00062FB05210C20FFF705FE0C20FFF7E8FD36
:101C000080239B001800FFF7ABFF1E4B1800FFF767
:101C1000F9FE031E0BD18023DB051A4A19001000C0
:101C2000FFF75EFE174B05211800FFF76AFE154B04
:101C30001800FFF7E7FE031E05D0124B1800FFF750
:101C40003BFF031E16D10F4B00211800FFF76CFE5F
:101C50000C4B00211800FFF789FE80235B01094A25
:101C600019001000FFF796FE074A064B11001800F6
:101C7000FFF76EFE034B1800FFF764FFC046BD463A
:101C800006B080BD002401401000001080B582B075
:101C900000AF00237B60164B1800FFF7B3FE031E56
:101CA00014D1134B1800FFF7CDFEC046104B18009F
:101CB000FFF7DCFE031EF9D120237B6002E07B6886
:101CC000013B7B607B68002BF9D101E0FFF75EFDF3
:101CD000074B1800FFF772FEC046054B1800FFF7D0
:101CE00006FF031EF9D0C046C046BD4602B080BD07
:101CF0000024014080B500AF0B4B1800FFF782FEB7
:101D00000300012B0BD1C046074B1800FFF7D4FE90
:101D1000031EF9D1044B1800FFF762FE01E0FFF744
:101D200035FDC046BD4680BD0024014080B500AFF2
:101D3000C046BD4680BD000090B583B000AFBB1D5E
:101D4000802252011A803B1D00221A801E4B18006F
:101D5000FFF758FE0300012B10D11B4B1800FFF7B3
:101D600061FE031E0AD1184B1800FFF7A5FE031EE3
:101D700004D1154B1800FFF78DFE01E0FFF706FDBB
:101D8000C046114B1800FFF7C2FE031EF9D00E4BE0
:101D90001800FFF7CCFEBC1D0B4B1800FFF79CFE94
:101DA00003002380BB1D1B88084A534308491800C1
:101DB000FFF7E8F803001A003B1D1A803B1D1B8843
:101DC0001800BD4603B090BD00240140E40C0000A3
:101DD000FF0F000080B582B000AF0200FB1D1A703B
:101DE000FB1D1B787F2B09D8FB1D1B781A001F23B6
:101DF0001A40044B012191400A001A60C046BD46BA
:101E000002B080BD00E100E090B583B000AF0200F9
:101E10003960FB1D1A70FB1D1B787F2B28D82F4AB9
:101E2000FB1D1B785BB29B08C0339B009B58FA1DBF
:101E30001278110003220A40D200FF2191400A00CB
:101E4000D2431A4011003B689B01FF221A40FB1D40
:101E50001B78180003230340DB009A401F48FB1D3A
:101E60001B785BB29B080A43C0339B001A5031E0D9
:101E70001B4AFB1D1B7819000F230B40083B9B08D6
:101E800006339B00D31804331B68FA1D1278110027
:101E900003220A40D200FF2191400A00D2431A4097
:101EA00011003B689B01FF221A40FB1D1B781800A4
:101EB00003230340DB009A400948FB1D1B781C00EC
:101EC0000F232340083B9B080A4306339B00C3189B
:101ED00004331A60C046BD4603B090BD00E100E087
:101EE00000ED00E080B584B000AF7860074B996BDF
:101EF000064B7A680A439A63044B9B6B7A681340DB
:101F0000FB60FB68C046BD4604B080BD00100240C7
:101F100080B584B000AF7860074BD96A064B7A6809
:101F20000A43DA62044BDB6A7A681340FB60FB68A1
:101F3000C046BD4604B080BD0010024080B582B0EE
:101F400000AF78607B681B6801221A437B681A60C7
:101F5000C046BD4602B080BD80B582B000AF78609B
:101F60007B68DB6920221340202B01D1012300E094
:101F700000231800BD4602B080BD80B582B000AF1E
:101F800078607B68DB6940221340402B01D101233C
:101F900000E000231800BD4602B080BD80B582B0CD
:101FA00000AF78607B6804221A62C046BD4602B06A
:101FB00080BD80B582B000AF78607B6840221A6235
:101FC000C046BD4602B080BD80B586B000AF786027
:101FD000EFF31083BB60BB687B610123FB60FB6890
:101FE00083F31088C0467B681B6820221A437B68F5
:101FF0001A607B693B613B6983F31088C046C04629
:10200000BD4606B080BD80B586B000AF7860EFF306
:102010001083BB60BB687B610123FB60FB6883F3BB
:102020001088C0467B681B6840221A437B681A6090
:102030007B693B613B6983F31088C046C046BD465F
:1020400006B080BD80B582B000AF78607B685B6A07
:10205000DBB21800BD4602B080BD80B582B000AFD3
:1020600078600A00FB1C1A70FB1C1A787B689A6265
:10207000C046BD4602B080BD90B58DB000AF1824FB
:102080003B19180018231A000021FEF787F83B00BF
:10209000180018231A000021FEF780F88023DB02C5
:1020A0001800FFF71FFF0420FFF732FF21007B1805
:1020B00030221A607B1802225A607B1803229A6031
:1020C0007B180022DA607B1800221A617B1802223A
:1020D0005A617B181A4A1900100002F0ECF8092125
:1020E0001D20FFF791FE1D20FFF774FE3B00962296
:1020F00092011A603B0000225A603B0000229A6065
:102100003B000022DA603B000C221A613B000022F7
:102110005A613B000B4A1900100002F075FA094B96
:102120001800FFF70BFF074B1800FFF74DFF054B9B
:102130001800FFF768FFC046BD460DB090BDC04611
:10214000000800500048004080B582B000AFF91D83
:102150000A4B0122180001F0D9FD0300012B09D11F
:10216000FB1D1B78064A19001000FFF776FF054B90
:1021700001221A70C046BD4602B080BDAC040020EA
:1021800000480040C004002080B500AFFFF774FF96
:1021900080239A000749084B180001F05DFD802359
:1021A0009A000649064B180001F056FDC046BD4690
:1021B00080BDC046980000209804002098020020AE
:1021C000AC04002080B584B000AFEFF31083BB6097
:1021D000BB68FB6072B6C046174B1800FFF7BCFE29
:1021E000031E11D0144B1800FFF72CFF03001A0038
:1021F000FB1D1A70104B1800FFF7D0FEF91D0F4B96
:102200000122180001F04AFD0B4B1800FFF7B5FE44
:10221000031E08D00A4B00221A70074B1800FFF764
:10222000C8FEFFF791FFFB68002B01D162B6C046E4
:10223000C046BD4604B080BD004800409804002060
:10224000C004002080B584B000AF7860074BD96A25
:10225000064B7A680A43DA62044BDB6A7A681340F9
:10226000FB60FB68C046BD4604B080BD0010024064
:1022700080B582B000AF786039607B683A689A6157
:10228000C046BD4602B080BD80B582B000AF786068
:1022900039607B683A689A62C046BD4602B080BD2C
:1022A00080B586B000AF0120FFF7CCFF3B001800DF
:1022B00018231A000021FDF771FF3B0020221A604D
:1022C0003B0001225A603B0000229A603B00002242
:1022D000DA603B0001221A613A00A023DB051100FD
:1022E000180001F0E8FFC046BD4606B080BD80B5CD
:1022F00082B000AF0200FB1D1A70FB1D1B78002B83
:1023000006D1A023DB0520211800FFF7BDFF05E063
:10231000A023DB0520211800FFF7AAFFC046BD4619
:1023200002B080BD80B582B000AF78607B681B686A
:10233000034A1A407B681A60C046BD4602B080BDA1
:10234000FFFFFDFF80B582B000AF78607B681B683F
:10235000034A1A407B681A60C046BD4602B080BD81
:10236000FFFFF7FF80B584B000AFF860B9607A6016
:10237000FB68DB68054A1A40B9687B680B431A435F
:10238000FB68DA60C046BD4604B080BD01F8FFFFBF
:1023900080B582B000AF78607B68DB68034A1A4082
:1023A0007B68DA60C046BD4602B080BDFF7FFFFF9C
:1023B00080B582B000AF78607B689B6901221340D2
:1023C000012B01D1012300E000231800BD4602B01B
:1023D00080BD80B582B000AF78607B689B690422C5
:1023E0001340042B01D1012300E000231800BD4657
:1023F00002B080BD80B582B000AF78607B689B6919
:1024000020221340202B01D1012300E000231800DB
:10241000BD4602B080BD80B582B000AF78607B68F9
:10242000DB6920221A437B68DA61C046BD4602B0F0
:1024300080BD80B582B000AF78607B685B68802229
:1024400092041A437B685A60C046BD4602B080BD04
:1024500080B584B000AFF860B9607A603B60FB681B
:102460005B68FA69510D8022D2000A400A490A438A
:10247000D2431A40B9687B6819433B681B0419436F
:10248000BB691943FB690B431A43FB685A60C0469A
:10249000BD4604B080BDC046FF7BFF0380B582B05F
:1024A00000AF78607B685B6ADBB21800BD4602B0A3
:1024B00080BD80B582B000AF78600A00FB1C1A7046
:1024C000FB1C1A787B689A62C046BD4602B080BD8C
:1024D00080B582B000AF786039607B681800FFF784
:1024E00067FF031E13D03B681A787B681100180041
:1024F000FFF7DFFFC0467B681800FFF759FF031E98
:1025000005D17B681800FFF775FF031EF3D0C046A6
:10251000BD4602B080BD80B582B000AF7860396042
:10252000C0467B681800FFF754FF031E05D17B6887
:102530001800FFF75FFF031EF3D07B681800FFF75A
:1025400048FF031E07D07B681800FFF7A7FF0300B2
:102550001A003B681A70C046BD4602B080BD00003C
:10256000B0B588B002AFF860080011007B600B24A2
:102570003B19021C1A700A257B190A1C1A70FB6889
:102580001B683B613B191978202308229446BC4400
:1025900063441B8801331A0038691B4B0193802365
:1025A0009B04009313000022FFF752FF7A193B6946
:1025B00011001800FFF78CFF00237B610AE07A68A6
:1025C0007B69D2183B6911001800FFF781FF7B6916
:1025D00001337B61202308229446BC4463441B885A
:1025E0007A699A42EBD3C0463B691800FFF702FFB5
:1025F000031EF9D03B691800FFF70DFF00231800F8
:10260000BD4606B0B0BDC0460020008090B589B080
:1026100002AFF860080011007B600B243B19021C1C
:102620001A700A203B180A1C1A70FB681B683B6171
:102630003B181A783B191978F86800230093002397
:10264000FFF78EFF3B191978202308229446BC44DB
:1026500063441A883869184B019380239B040093C4
:1026600013000022FFF7F4FE00237B610AE07A6882
:102670007B69D2183B6911001800FFF74CFF7B699A
:1026800001337B61202308229446BC4463441B88A9
:102690007A699A42EBD3C0463B691800FFF7AAFE5D
:1026A000031EF9D03B691800FFF7B5FE00231800A0
:1026B000BD4607B090BDC0460024008090B5C5B0AF
:1026C00000AFF860B9607A60BB681800FFF7B1FE30
:1026D000BB681800FFF75CFEBB681800FFF732FE0E
:1026E000BB681800FFF71EFE7A68BB68110018006F
:1026F00001F0DCFE0300012B0CD10D4A10243B1924
:1027000011001800FDF7BAFD3B19180000F058FC45
:10271000FFF73CF8BB68002200211800FFF722FEFB
:10272000FB68BA681A60C046BD4645B090BDC04659
:10273000004F000880B584B000AF7860074B996BFC
:10274000064B7A680A439A63044B9B6B7A68134082
:10275000FB60FB68C046BD4604B080BD001002406F
:1027600080B584B000AF7860074BD96A064B7A68B1
:102770000A43DA62044BDB6A7A681340FB60FB6849
:10278000C046BD4604B080BD0010024090B58FB079
:1027900000AF0220FFF7E4FF80239B031800FFF740
:1027A000C9FF20243B19180018231A000021FDF747
:1027B000F5FC21007B18C0221A607B1802225A60A7
:1027C0007B1803229A607B180122DA607B180022B2
:1027D0001A617B1801225A617B18154A19001000F2
:1027E00001F069FD3B1D18001C231A000021FDF7B4
:1027F000D5FC3B1D00221A603B1D0E4A5A603B1D52
:1028000000229A603B1D0022DA603B1D00221A6103
:102810003B1D00225A613B1D00229A613A1D064968
:10282000064B1800FFF74AFFC046BD460FB090BDEB
:1028300000040050380F300000540040C80400204D
:1028400090B585B002AF040008003A601900FB1D86
:10285000221C1A70BB1D021C1A707B1D0A1C1A70E8
:10286000FB1D1B78DB18D9B27B1D1B789BB23C6823
:10287000BA1D1278044800932300FFF771FE00236D
:102880001800BD4603B090BDC804002090B585B0C7
:1028900002AF040008003A601900FB1D221C1A70E8
:1028A000BB1D021C1A707B1D0A1C1A70FB1D1B78B5
:1028B000DB18D9B27B1D1B789BB23C68BA1D12781D
:1028C000044800932300FFF7A1FE00231800BD4633
:1028D00003B090BDC804002080B582B000AF78601E
:1028E0007B681800FEF76EFEC046BD4602B080BD94
:1028F00090B5C7B002AF354B354A5A61334B354AB4
:102900009A61324B344ADA61304B28225A74334B85
:10291000180000F03DFC030086225200B9180B603D
:10292000BB181B68002B01D0FEF730FF002001F020
:10293000F1F8030084225200B9180B60BB181B6821
:10294000002B01D0FEF722FFFA239B001800FEF7B0
:1029500039FE7B1CFF33180000F02EFD03007A1DAA
:10296000FF3213607B1DFF331B68002B01D0FEF785
:102970000DFF7B1CFF331A883B1DFF331A707B1C35
:10298000FF331B881B0A9AB2FB1CFF331A707B1C97
:10299000FF331B881C00FB1CFF331A783B1DFF33E1
:1029A0001B780F493800009313002200FDF766FCE6
:1029B0003B00180000F004FBFA239B001800FEF710
:1029C00001FEC046BD4645B090BDC046C4040020CF
:1029D000412800088D280008D9280008CC040020D0
:1029E000144F000880B584B000AF072000F09AFFB4
:1029F0000300FB60FB68002B01D0FEF7C7FE00233D
:102A0000BB60134B180000F08FFD03001A00BB6879
:102A10001343BB600F4B180000F014FE03001A00B4
:102A2000BB681343BB600C4B180000F099FE030019
:102A30001A00BB681343BB60BB687B607B68002BDC
:102A400001D0FEF7A3FEC046BD4604B080BDC0461F
:102A5000E4040020EA040020F004002080B500AF68
:102A6000FFF794FEFFF744FFC046BD4680BD00005F
:102A700080B582B000AF01F01DFB03007B600B4B03
:102A80001B687A681100180001F0FCFA0200FA23B2
:102A90009B009A4205D3054B7A681A60FFF7A2FFA4
:102AA00000E0C046BD4602B080BDC046C404002060
:102AB00080B582B000AF0200FB1D1A70FB1D1B78B1
:102AC0007F2B09D8FB1D1B781A001F231A40044BCB
:102AD000012191400A001A60C046BD4602B080BD87
:102AE00000E100E090B583B000AF02003960FB1D4B
:102AF0001A70FB1D1B787F2B28D82F4AFB1D1B78D3
:102B00005BB29B08C0339B009B58FA1D12781100E2
:102B100003220A40D200FF2191400A00D2431A400A
:102B200011003B689B01FF221A40FB1D1B78180017
:102B300003230340DB009A401F48FB1D1B785BB258
:102B40009B080A43C0339B001A5031E01B4AFB1D0F
:102B50001B7819000F230B40083B9B0806339B0092
:102B6000D31804331B68FA1D1278110003220A409F
:102B7000D200FF2191400A00D2431A4011003B6865
:102B80009B01FF221A40FB1D1B7818000323034002
:102B9000DB009A400948FB1D1B781C000F232340D3
:102BA000083B9B080A4306339B00C31804331A6092
:102BB000C046BD4603B090BD00E100E000ED00E07E
:102BC00080B584B000AF7860074B996B064B7A688C
:102BD0000A439A63044B9B6B7A681340FB60FB6863
:102BE000C046BD4604B080BD0010024080B584B030
:102BF00000AF7860074BD96A064B7A680A43DA62FD
:102C0000044BDB6A7A681340FB60FB68C046BD4634
:102C100004B080BD0010024080B582B000AF786083
:102C20007B681B6801221A437B681A60C046BD4658
:102C300002B080BD80B582B000AF78607B685B6811
:102C4000074A1A407B685A607B689B682A22934334
:102C50001A007B689A60C046BD4602B080BDC0467F
:102C6000FFB7FFFF80B582B000AF78607B68DB699B
:102C700020221340202B01D1012300E00023180063
:102C8000BD4602B080BD80B582B000AF78607B6881
:102C9000DB6940221340402B01D1012300E00023D7
:102CA0001800BD4602B080BD80B582B000AF78602C
:102CB0007B6804221A62C046BD4602B080BD80B562
:102CC00082B000AF78607B6840221A62C046BD4681
:102CD00002B080BD80B586B000AF7860EFF310839E
:102CE000BB60BB687B610123FB60FB6883F31088DA
:102CF000C0467B681B6820221A437B681A607B6988
:102D00003B613B6983F31088C046C046BD4606B0B0
:102D100080BD80B586B000AF7860EFF31083BB60F4
:102D2000BB687B610123FB60FB6883F31088C046AE
:102D30007B681B6840221A437B681A607B693B6191
:102D40003B6983F31088C046C046BD4606B080BDCF
:102D500080B582B000AF78607B685B6ADBB2180038
:102D6000BD4602B080BD80B582B000AF78600A0079
:102D7000FB1C1A70FB1C1A787B689A62C046BD4621
:102D800002B080BD90B58FB000AF1C243B19180075
:102D90001C231A000021FDF701FA3B1D180018231F
:102DA0001A000021FDF7FAF980239B021800FFF7B3
:102DB00007FF0120FFF71AFF3B1D0C221A603B1D85
:102DC00002225A603B1D03229A603B1D0022DA60FA
:102DD0003B1D00221A613B1D04225A613A1DA023AB
:102DE000DB051100180001F066FA3B19E1225202DE
:102DF0001A6021007B1800225A607B1800229A601A
:102E00007B180022DA607B180C221A617B180022E2
:102E10005A617B1800229A617B18104A1900100031
:102E200001F0C4FF0D4B1800FFF704FF0B4B180017
:102E3000FFF7F2FE094B1800FFF74CFF074B180095
:102E4000FFF767FF0A211C20FFF74CFE1C20FFF74D
:102E50002FFEC046BD460FB090BDC04600440040A6
:102E600080B582B000AFF91D0A4B0122180000F0B6
:102E70004DFF0300012B09D1FB1D1B78064A1900E9
:102E80001000FFF770FF054B01221A70C046BD46C7
:102E900002B080BD0C090020004400402009002041
:102EA00080B500AF024B1B781800BD4680BDC04600
:102EB0002009002080B584B000AF78603960EFF35E
:102EC0001083BB60BB68FB6072B6C0463A68796825
:102ED0000A4B180000F0E2FE094B1B780122534018
:102EE000DBB2002B01D0FFF7BBFFFB68002B01D149
:102EF00062B6C046C046BD4604B080BD0C09002085
:102F00002009002080B500AFFFF73CFF80239A0026
:102F10000749084B180000F09FFE80239A000649DD
:102F2000064B180000F098FEC046BD4680BDC04666
:102F3000F8040020F8080020F80600200C09002002
:102F400080B584B000AFEFF31083BB60BB68FB605B
:102F500072B6C046174B1800FFF784FE031E11D04F
:102F6000144B1800FFF7F4FE03001A00FB1D1A7043
:102F7000104B1800FFF798FEF91D0F4B01221800A7
:102F800000F08CFE0B4B1800FFF77DFE031E08D0EF
:102F90000A4B00221A70074B1800FFF790FEFFF74C
:102FA0005FFFFB68002B01D162B6C046C046BD463C
:102FB00004B080BD00440040F80800202009002033
:102FC00080B584B000AF78607B681800FDF776F9B3
:102FD0000300FB60FA6880239B009A4205D9FB68D6
:102FE000013B7A68D31800221A70FA687B681100D6
:102FF0001800FFF75FFFC046FFF752FF031EFBD12B
:10300000C046C046BD4604B080BD80B584B000AFA8
:1030100078600023FB600EE0FEF738FEFEF78CFEC2
:10302000030019007B68FA685200D152FEF762FE75
:10303000FB680133FB60FB68002BEDDD002318000B
:10304000BD4604B080BD0000B0B5C4B000AF78602C
:10305000002386225200BA18136016E07B6886248B
:1030600064003A1912685200D35A1A000C490C2510
:103070007B191800FDF702F97B191800FFF7A0FF74
:103080003B191B6801333A19136086235B00FB1858
:103090001B68002BE2DDC046C046BD4644B0B0BD53
:1030A000304F000880B500AF01F004F80200024B79
:1030B0001A60C046BD4680BD2409002080B584B09A
:1030C00000AF00F0F7FF0300FB60114B1B68FA68CC
:1030D0001100180000F0D6FF0200FA239B009A426C
:1030E00012D30B4BFA681A603B1D1800FFF78DFFD7
:1030F0000300BB60BB68002B01D0FEF747FB3B1D04
:103100001800FFF7A1FF00E0C046BD4604B080BD37
:103110002409002080B500AF174B1A68164B802198
:1031200049000A431A60144BDA68134B13490A40EA
:10313000DA60114B1A68104B11490A401A600E4BA5
:103140009A680D4B01218A439A600B4B1A680A4B0F
:103150000C490A401A60084BDA68074B0A490A40D2
:10316000DA60054B00221A61084B802212059A6032
:10317000C046BD4680BDC046001002400C40FF88DE
:10318000F6FFF6FEFFFFFBFFFFFF02FF00ED00E092
:10319000F0B585B000AF78600F26BB19FF221A701A
:1031A0000E23FB1800221A700D22BB1800221A7081
:1031B00008217B1800221A80654B7A681A60644BDC
:1031C0001B68DD68624B1B68587ABC190D22BA185F
:1031D00001230721A847030023705D4B1B681C696E
:1031E0005B4B1B68587A0E23FA1801230021A04775
:1031F0000300DAB235007B191B78D318DAB27B19D9
:103200001A70534B1B680E26BA1912781A70504B5D
:103210001B681C694E4B1B68587ABA19012301219F
:10322000A0470300DAB27B191B78D318DAB27B19F6
:103230001A70474B1B68BA1912785A71444B1B68B5
:103240001C69434B1B68587ABA1901230221A04715
:103250000300DAB27B191B78D318DAB27B191A7023
:103260003B4B1B68BA1912789A71394B1B681C6961
:10327000374B1B68587ABA1901230321A047030072
:10328000DAB27B191B78D318DAB27B191A70304B7B
:103290001B68BA191278DA712D4B1B681C692C4B0C
:1032A0001B68587ABA1901230621A0470300DAB235
:1032B0007B191B78D318DAB27B191A70244B1B6860
:1032C000BA1912781A72224B1B681C69204B1B68B2
:1032D000587A08217A1802230421A0470300DAB2A1
:1032E0007B191B78D318DAB27B191A7008217B1866
:1032F0001A787B181A700A00BB185B789BB21B0205
:1033000099B2BB181B789AB2114B1B680A4392B250
:103310005A800F4B1B681C690D4B1B68587ABA19F1
:1033200001230721A0470300DAB27B191B78D318C9
:10333000DAB27B191A70064B1B68BA1912781A7127
:103340007B191B785BB21800BD4605B0F0BDC046C6
:1033500028090020F0B585B000AF39601100FB1DD1
:10336000021C1A70BB1D0A1C1A700F23FB18FF22C7
:103370001A70104B1B68002B02D17F235B4214E0B4
:103380000C4B1B68DD680B4B1B68587A0F23FC182D
:10339000BB1D1E783A68FB1D19783300A84703004F
:1033A00023700F23FB181B785BB21800BD4605B0D5
:1033B000F0BDC04628090020F0B585B000AF7860A8
:1033C0000F23FB18FF221A700C23FB1800221A800F
:1033D0000E23FB18FF221A70254B1B68002B02D10D
:1033E0007F235B423FE0224B1B681B79002B06D0FA
:1033F0000E23FC18002000F03DF8030023700E237C
:10340000FB181B785BB2002B04D0194B1B681B798F
:10341000002B20D1164B1B681D69154B1B68587A71
:103420000F23FC180C26BA1902230421A847030015
:10343000237031007B181A787B181A707B185B7820
:103440009BB21B029AB27B181B789BB213439AB2B1
:103450007B681A8003E00F23FB18FF221A700F23EA
:10346000FB181B785BB21800BD4605B0F0BDC04626
:1034700028090020F0B585B000AF0200FB1D1A70CE
:103480000F23FB18FF221A700E23FB1800221A705C
:10349000244B1B68002B02D17F235B423EE0214B73
:1034A0001B681D691F4B1B68587A0F26BC190E211B
:1034B0007A1801230721A8470300237035007B19E0
:1034C0001B785BB2002B21D10E217B18FA1D1278DC
:1034D0001A70144B1B68DC68124B1B68587A7A18F8
:1034E00001230721A0470300DAB27B191B78D31808
:1034F000DAB27B191A707B191B785BB2002B09D1E9
:10350000084B1B68FA1D12781A7103E00F23FB1891
:10351000FF221A700F23FB181B785BB21800BD4600
:1035200005B0F0BD28090020F0B585B000AF786087
:103530000F23FB18FF221A700823FB183F4A11685B
:10354000196092889A800E23FB18FF221A703C4B58
:103550001B68002B02D17F235B426BE0384B1B685A
:103560001B79002B06D00E23FC180020FFF782FFEA
:10357000030023700E23FB181B785BB2002B04D0D2
:103580002F4B1B681B79002B4CD12D4B1B681D69E1
:103590002B4B1B68587A0F23FC180826BA190623F0
:1035A0000821A8470300237031007B181A787B1884
:1035B0001A707B185A787B185A707B185B785BB24C
:1035C0001B021AB27B181B781BB213431AB27B681A
:1035D0001A807B189A787B189A707B18DA787B1897
:1035E000DA707B18DB785BB21B021AB27B189B780F
:1035F0001BB213431AB27B685A807B181A797B1866
:103600001A717B185A797B185A717B185B795BB2F7
:103610001B021AB27B181B791BB213431AB27B68C8
:103620009A8003E00F23FB18FF221A700F23FB1868
:103630001B785BB21800BD4605B0F0BD404F0008D6
:1036400028090020F0B585B000AF78600F23FB1883
:10365000FF221A700823FB183F4A116819609288EC
:103660009A800E23FB18FF221A703C4B1B68002B1C
:1036700002D17F235B426BE0384B1B681B79002B28
:1036800006D00E23FC180020FFF7F4FE0300237081
:103690000E23FB181B785BB2002B04D02F4B1B684A
:1036A0001B79002B4CD12D4B1B681D692B4B1B68C4
:1036B000587A0F23FC180826BA1906230E21A847AA
:1036C0000300237031007B181A787B181A707B185E
:1036D0005A787B185A707B185B785BB21B021AB25F
:1036E0007B181B781BB213431AB27B681A807B18B5
:1036F0009A787B189A707B18DA787B18DA707B18C6
:10370000DB785BB21B021AB27B189B781BB21343A7
:103710001AB27B685A807B181A797B181A717B1849
:103720005A797B185A717B185B795BB21B021AB20B
:103730007B181B791BB213431AB27B689A8003E093
:103740000F23FB18FF221A700F23FB181B785BB2A4
:103750001800BD4605B0F0BD404F00082809002004
:10376000F0B585B000AF78600F23FB18FF221A7008
:103770000823FB183F4A1168196092889A800E232B
:10378000FB18FF221A703C4B1B68002B02D17F23D1
:103790005B426BE0384B1B681B79002B06D00E2375
:1037A000FC180020FFF766FE030023700E23FB18B1
:1037B0001B785BB2002B04D02F4B1B681B79002BAE
:1037C0004CD12D4B1B681D692B4B1B68587A0F235E
:1037D000FC180826BA1906231421A84703002370F1
:1037E00031007B181A787B181A707B185A787B186E
:1037F0005A707B185B785BB21B021AB27B181B787D
:103800001BB213431AB27B681A807B189A787B1814
:103810009A707B18DA787B18DA707B18DB785BB2E9
:103820001B021AB27B189B781BB213431AB27B6837
:103830005A807B181A797B181A717B185A797B1871
:103840005A717B185B795BB21B021AB27B181B7929
:103850001BB213431AB27B689A8003E00F23FB1854
:10386000FF221A700F23FB181B785BB21800BD46AD
:1038700005B0F0BD404F000828090020F0B585B024
:1038800000AF78600F23FB18FF221A700D23FB187E
:1038900000221A700E23FB18FF221A70204B1B689F
:1038A000002B02D17F235B4235E01D4B1B681B7947
:1038B000002B06D00E23FC180020FFF7DBFD0300D1
:1038C00023700E23FB181B785BB2002B04D0144B23
:1038D0001B681B79002B16D1114B1B681D69104BFF
:1038E0001B68587A0F23FC180D26BA1901233D21B5
:1038F000A84703002370BB191B780F221340DAB2CC
:103900007B681A7003E00F23FB18FF221A700F2345
:10391000FB181B785BB21800BD4605B0F0BDC04671
:1039200028090020F0B585B000AF0200FB1D1A7019
:103930000F23FB18FF221A700D23FB1800221A70A8
:103940000C23FB1800221A700E23FB18FF221A709A
:103950006F4B1B68002B02D17F235B42D3E00E2507
:103960007C190C26BB191800FFF788FF0300237091
:103970007B191B785BB2002B00D0BCE0BB191B7815
:10398000002B42D1624B1B681D69614B1B68587A42
:103990000F26BC190D23FA1801233D21A847030067
:1039A000237035007B191B785BB2002B00D0A6E09A
:1039B0000D203B181B785BB20F2293435AB2FB1DBC
:1039C0001B785BB20F210B405BB213435BB2DAB2E0
:1039D00001007B181A704E4B1B68DC684C4B1B684F
:1039E000587A7A1801233D21A0470300DAB27B19E7
:1039F0001B78D318DAB27B191A70454B1B685B69C8
:103A0000962292001000984779E0414B1B681D698F
:103A10003F4B1B68587A0F26BC190D217A180123D9
:103A20003D21A8470300237034003B191B785BB28B
:103A3000002B1AD10D217B181B780F229343DAB289
:103A40007B181A707B18012219003D20FFF782FCB9
:103A50000300DAB23B191B78D318DAB23B191A709B
:103A60002B4B1B685B6914209847FB1D1B78002BB0
:103A700045D0274B1B681D69254B1B68587A0F26BC
:103A8000BC190D23FA1801233D21A8470300237018
:103A900035007B191B785BB2002B30D10D203B1811
:103AA0001B785BB20F2293435AB2FB1D1B785BB2AB
:103AB0000F210B405BB213435BB2DAB201007B18FB
:103AC0001A70134B1B68DC68114B1B68587A7A1804
:103AD00001233D21A0470300DAB27B191B78D318DC
:103AE000DAB27B191A700A4B1B685B699622920046
:103AF0001000984703E00F23FB18FF221A700F23D2
:103B0000FB181B785BB21800BD4605B0F0BDC0467F
:103B100028090020F0B585B000AF0200FB1D1A7027
:103B20000F23FB18FF221A700D23FB1800221A70B6
:103B30000C23FB1800221A700E23FB18FF221A70A8
:103B4000444B1B68002B02D17F235B427EE00E2595
:103B50007C190C26BB191800FFF790FE0300237098
:103B60002C003B191B785BB2002B54D1BB191B787E
:103B7000002B0AD00020FFF7D5FE0300DAB23B1974
:103B80001B78D318DAB23B191A700E23FB181B7876
:103B90005BB2002B3AD12F4B1B681D692D4B1B6864
:103BA000587A0F26BC190D23FA1801233E21A84785
:103BB0000300237035007B191B785BB2002B2ED1DC
:103BC0000D203B181B785BB2032293435AB2FB1DB6
:103BD0001B785BB203210B405BB213435BB2DAB2DA
:103BE00001007B181A701B4B1B68DC68194B1B68A3
:103BF000587A7A1801233E21A0470300DAB27B19D4
:103C00001B78D318DAB27B191A7008E00F23FB185F
:103C1000FF221A7003E00F23FB18FF221A700C22F8
:103C2000BB181B78002B0DD0BB181B781800FFF7B2
:103C300079FE0300DAB20F217B181B78D318DAB2B1
:103C40007B181A700F23FB181B785BB21800BD4657
:103C500005B0F0BD2809002080B584B000AFF86041
:103C6000B9607A607B68013B7A68134002D0012317
:103C70005B420FE0FB68BA681A60FB687A681A61F9
:103C8000FB6800225A60FB6800229A60FB680022F1
:103C9000DA6000231800BD4604B080BD80B586B050
:103CA00000AFF860B9607A60FB68DA687B68D218A8
:103CB000FB681B699A4201D9002323E000237B6142
:103CC00015E0BA687B69D218FB681968FB685B6805
:103CD000CB1812781A70FB685B685A1CFB681B696A
:103CE000013B1A40FB685A607B6901337B617A694A
:103CF0007B689A42E5D3FB68DA687B68D218FB6878
:103D0000DA607B681800BD4606B080BD80B586B01D
:103D100000AFF860B9607A60FB68DB687A689A4245
:103D200001D9002323E000237B6115E0FB681A68BA
:103D3000FB689B68D218B9687B69CB1812781A7037
:103D4000FB689B685A1CFB681B69013B1A40FB68B7
:103D50009A607B6901337B617A697B689A42E5D31B
:103D6000FB68DA687B68D21AFB68DA607B68180047
:103D7000BD4606B080BD000080B582B000AF020035
:103D8000FB1D1A70FB1D1B787F2B09D8FB1D1B78B0
:103D90001A001F231A40044B012191400A001A60A7
:103DA000C046BD4602B080BD00E100E090B583B0E2
:103DB00000AF02003960FB1D1A70FB1D1B787F2BC2
:103DC00028D82F4AFB1D1B785BB29B08C0339B0091
:103DD0009B58FA1D1278110003220A40D200FF21DD
:103DE00091400A00D2431A4011003B689B01FF2218
:103DF0001A40FB1D1B78180003230340DB009A4088
:103E00001F48FB1D1B785BB29B080A43C0339B0015
:103E10001A5031E01B4AFB1D1B7819000F230B4081
:103E2000083B9B0806339B00D31804331B68FA1D1C
:103E30001278110003220A40D200FF2191400A00AB
:103E4000D2431A4011003B689B01FF221A40FB1D20
:103E50001B78180003230340DB009A400948FB1D30
:103E60001B781C000F232340083B9B080A430633A2
:103E70009B00C31804331A60C046BD4603B090BD12
:103E800000E100E000ED00E080B584B000AF7860B4
:103E9000074B996B064B7A680A439A63044B9B6BFA
:103EA0007A681340FB60FB68C046BD4604B080BD25
:103EB0000010024080B582B000AF78607B681B685C
:103EC00001221A437B681A60C046BD4602B080BD1D
:103ED00080B582B000AF78607B681B680222934394
:103EE0001A007B681A60C046BD4602B080BD80B52E
:103EF00082B000AF78607B681B6880221A437B68C1
:103F00001A60C046BD4602B080BD000080B582B0D8
:103F100000AF786039607B689B68054A1A403B684F
:103F20001A437B689A60C046BD4602B080BDC04659
:103F3000F8BFFFFF80B582B000AF786039607B6862
:103F40005B68702293431A003B681A437B685A608F
:103F5000C046BD4602B080BD80B582B000AF78607B
:103F60007B689B68802293431A007B689A60C046F6
:103F7000BD4602B080BD80B582B000AF78607B687E
:103F8000022252421A61C046BD4602B080BD80B5D1
:103F900082B000AF78607B68DB6801221A437B68DF
:103FA000DA60C046BD4602B080BD000080B584B076
:103FB00000AF0120FFF768FF3B00180010231A0034
:103FC0000021FCF7EBF83B0017221A803B0000228F
:103FD0005A603B001D4A9A603B000022DA603A00BA
:103FE0008023DB051100180000F0E0FD8023DB05D5
:103FF0001800FFF77CFF8023DB0500211800FFF786
:1040000085FF8023DB0500211800FFF793FF802345
:10401000DB051800FFF7A0FF8023DB051800FFF782
:1040200049FF8023DB051800FFF752FF8023DB05E3
:104030001800FFF7ACFF04210F20FFF7B7FE0F2099
:10404000FFF79AFEC046BD4604B080BDFFFF0000EA
:1040500080B582B000AF786039603A687B689A4278
:1040600006D23A687B68D31A054A9446634402E054
:104070003A687B68D31A1800BD4602B080BDC046BE
:10408000FFFF000080B584B000AF786039603A6807
:104090007B6811001800FFF7DBFF0300FB60FB6883
:1040A000FA2291001800FCF76DFF03001800BD46CE
:1040B00004B080BD80B584B000AFEFF310837B60A7
:1040C0007B68FB6072B6C046094B1A6813001B047C
:1040D0009A1A8023DB055B6AD318BB60FB68002B50
:1040E00001D162B6C046BB681800BD4604B080BDB1
:1040F0002C09002080B500AFFFF758FFC046BD4631
:1041000080BD000080B582B000AFEFF310833B604C
:104110003B687B6072B6C0468023DB051800FFF762
:104120002AFF074B1B685A1C054B1A607B68002B43
:1041300001D162B6C046C046BD4602B080BDC04691
:104140002C09002080B584B000AFF860B9607A60B7
:10415000FB681968BB685B431A0013005B009B187F
:10416000DB430B401A00BB685B4379684B431A433F
:10417000FB681A60C046BD4604B080BD80B584B0FF
:1041800000AFF860B9607A60FB685B68BA68D243D8
:104190001A40BB6879684B431A43FB685A60C046B3
:1041A000BD4604B080BD80B584B000AFF860B96092
:1041B0007A60FB689968BB685B431A0013005B0078
:1041C0009B18DB430B401A00BB685B4379684B4389
:1041D0001A43FB689A60C046BD4604B080BD80B5F6
:1041E00084B000AFF860B9607A60FB68D968BB68DA
:1041F0005B431A0013005B009B18DB430B401A0063
:10420000BB685B4379684B431A43FB68DA60C0467E
:10421000BD4604B080BD80B584B000AFF860B96021
:104220007A60FB68196ABB685B43BA685343BA6833
:104230005A4313001B019B1ADB430B401A00BB6857
:104240005B43B9684B43B9684B4379684B431A43A6
:10425000FB681A62C046BD4604B080BD80B584B01C
:1042600000AFF860B9607A60FB68596ABB681B0AE6
:10427000BA68120A5343BA68120A5343BA68120A58
:104280005A4313001B019B1ADB430B401A00BB6807
:104290001B0AB968090A4B43B968090A4B43B96854
:1042A000090A4B4379684B431A43FB685A62C0467C
:1042B000BD4604B080BD80B584B000AF7860396081
:1042C0000023FB600023BB6048E03B681B680121C2
:1042D000FA6891400A001340BB60BB68002B3AD0DB
:1042E0003B685B68012B03D03B685B68022B0ED1F7
:1042F0003B689A68B9687B681800FFF754FF3B6811
:1043000019683B68DA687B681800FFF737FF3B687D
:104310001A69B9687B681800FFF761FF3B685B6842
:10432000022B11D1BB68FF2B07D83B685A69B968CB
:104330007B681800FFF76FFF06E03B685A69B968B1
:104340007B681800FFF78AFF3B685A68B9687B688A
:104350001800FFF7F7FEFB680133FB603B681A6843
:10436000FB68DA40131EB0D100231800BD4604B02C
:1043700080BD80B582B000AF78607B681B68012289
:104380001A437B681A60C046BD4602B080BD80B546
:1043900082B000AF78607B681B68012293431A00EB
:1043A0007B681A60C046BD4602B080BD80B584B04F
:1043B00000AFF860B9607A60FB681B68064A1A4073
:1043C0007B681902BB680B431A43FB681A60C0463E
:1043D000BD4604B080BDC046FFE0FFFF80B584B09D
:1043E00000AFF860B9607A60FB689B68DB0ADA02AC
:1043F000B9687B680B431A43FB689A60C046BD46A8
:1044000004B080BD80B582B000AF78607B689B68E7
:10441000802212021A437B689A60C046BD4602B0F1
:1044200080BD000080B582B000AF78607B689B687B
:10443000034A1A407B689A60C046BD4602B080BD00
:10444000FF7FFFFF80B582B000AF786039607B6886
:104450003A681A61C046BD4602B080BD80B582B0E0
:1044600000AF786039607B681B68054A1A403B687A
:104470001A437B681A60C046BD4602B080BDC04684
:10448000FFFFCFFF80B582B000AF786039607B68F6
:104490005B68054A1A403B681A437B685A60C0460D
:1044A000BD4602B080BDC046FF7FFFFF80B582B031
:1044B00000AF786039607B681800FFF768FF3B68E1
:1044C00099683B68DA687B681800FFF76FFF3B6804
:1044D0005A687B6811001800FFF7B4FF7B6818006A
:1044E000FFF747FF7B681800FFF79CFF3B681969DF
:1044F0003B689A697B681800FFF770FF3B681B698F
:10450000002B03D07B681800FFF77CFF3B681A681C
:104510007B6811001800FFF7A1FF3B685A697B68B0
:1045200011001800FFF7AEFF00231800BD4602B0CF
:1045300080BD80B582B000AF78607B681B680122C7
:104540001340012B01D1012300E000231800BD46D8
:1045500002B080BD80B582B000AF786039607B6802
:104560005B68054A1A403B681A437B685A60C0463C
:10457000BD4602B080BDC046FFCFFFFF80B582B010
:1045800000AF786039607B689B68054A1A403B68D9
:104590001A437B689A60C046BD4602B080BDC046E3
:1045A000FFFCFFFFB0B58AB000AF78623962FA61F4
:1045B000FB69002B24D03B6A3B6100237B61396996
:1045C0007A690B001B0E100005021D430B001C0234
:1045D000FB695B08BB600023FB60B868F9680019E1
:1045E0006941FB693B6000237B603A687B68FCF7AC
:1045F00055FD02000B0013001B031A0B7B6ADA60E7
:10460000C046BD460AB0B0BD90B585B000AF786079
:1046100039600F243B1901221A707B681800FFF7DC
:1046200088FF031E34D17B681B681D4A1A403B6813
:1046300059683B68DB6819433B681B690B431A43A5
:104640007B681A603B689A687B6811001800FFF766
:1046500081FF3B685A697B6811001800FFF78EFFE5
:10466000C0231B01180000F071F90300BB60BB6898
:10467000002B0DD03B681B68002B09D03B19002292
:104680001A703B681A68B9687B681800FFF78AFFE0
:104690000F23FB181B781800BD4605B090BDC0461F
:1046A000F3E9FFEF80B500AF054B1B680422134010
:1046B000042B01D1012300E000231800BD4680BD7A
:1046C0000010024080B500AF074B1A6D80239B009D
:1046D0001A4080239B009A4201D1012300E000236D
:1046E0001800BD4680BDC0460010024080B500AF36
:1046F000034B5A68E0231B0213401800BD4680BDDF
:104700000010024080B500AF034BDB680C22134061
:104710001800BD4680BDC0460010024080B500AF05
:10472000034BDB68F02213401800BD4680BDC04635
:104730000010024080B500AF034BDA68E023DB00D5
:1047400013401800BD4680BD0010024080B500AF88
:10475000034BDA68E0239B0113401800BD4680BD7F
:104760000010024080B582B000AF7860054BDB6C72
:104770007A681A407B681B0413431800BD4602B0D8
:1047800080BDC0460010024080B582B000AF7860A6
:10479000034BDB6C7A6813401800BD4602B080BD45
:1047A0000010024080B500AF034BDA6880235B0243
:1047B00013401800BD4680BD0010024080B500AF18
:1047C000034BDA68F0239B0313401800BD4680BDFD
:1047D0000010024080B500AF034BDA68C0231B0411
:1047E00013401800BD4680BD0010024080B500AFE8
:1047F000054B1B6810221340102B01D1012300E050
:1048000000231800BD4680BD0010024080B584B072
:1048100000AF78600023FB607B68032B39D17B6895
:104820001800FFF79FFF0300404A93421CD03F4A05
:10483000934221D83E4A934203D03E4A934205D048
:104840001AE000F0D3F80300FB6027E0FFF72AFF2F
:10485000031E20D0FFF7CAFF031E02D0364BFB60B9
:1048600019E0364BFB6016E0FFF72CFF031E14D057
:1048700080231B02FB6010E000F0B8F80300180072
:1048800000F0F8F80300180000F01EF90300FB60C8
:1048900004E0C04602E0C04600E0C0467B680C2B46
:1048A00039D17B681800FFF75DFF0300244A93426B
:1048B0001CD0234A934221D8224A934203D0224A51
:1048C000934205D01AE000F091F80300FB6027E066
:1048D000FFF7E8FE031E20D0FFF788FF031E02D07B
:1048E000154BFB6019E0154BFB6016E0FFF7EAFE85
:1048F000031E14D080231B02FB6010E000F076F84A
:104900000300180000F0B6F80300180000F0C8F823
:104910000300FB6004E0C04602E0C04600E0C04681
:10492000FB681800BD4604B080BDC046030003000C
:10493000010003000200030000093D000024F40010
:104940000C000C0004000C0008000C0080B584B0C2
:1049500000AF78600023FB607B681800FFF714FF4E
:104960000300C022120193421FD0C02212019342C1
:1049700023D88022D200934204D080221201934295
:1049800005D01AE000F032F80300FB6025E0FFF7E5
:1049900089FE031E1ED0FFF729FF031E02D0114B14
:1049A000FB6017E0104BFB6014E0FFF78BFE031E6B
:1049B00012D080231B02FB600EE000F017F803000A
:1049C000180000F057F80300180000F069F8030021
:1049D000FB6002E0C04600E0C046FB681800BD4630
:1049E00004B080BD00093D000024F40080B582B011
:1049F00000AFFFF787FE03000C2B20D024D8082B34
:104A00001AD021D8002B02D0042B0BD01CE0FFF7CA
:104A10006DFE03005B0B0133802212029A401300EB
:104A20007B601CE0FFF7E2FE031E02D00E4B7B60B2
:104A300015E00E4B7B6012E00D4B7B600FE000F049
:104A400057F803007B600AE0FFF750FE03005B0BA2
:104A50000133802212029A4013007B60C0467B68BB
:104A60001800BD4602B080BD00093D000024F400DE
:104A700000127A0080B582B000AF7860FFF74EFE7A
:104A800003001B090F221340044AD35C1A007B6801
:104A9000D3401800BD4602B080BDC046644F000838
:104AA00080B582B000AF7860FFF744FE03001B0AB8
:104AB000044AD35C1A007B68D3401800BD4602B09C
:104AC00080BDC046744F000880B582B000AF7860EA
:104AD000FFF73CFE0300DB0A044AD35C1A007B6844
:104AE000D3401800BD4602B080BDC046744F0008D8
:104AF00090B583B000AFFFF755FE03003B603B6805
:104B0000002B09D1FFF772FE031E02D0104B7B6011
:104B100005E0104B7B6002E00F4B7B60C046FFF767
:104B20004DFE03009B0C0D4AD35C1A007B68534377
:104B30001C00FFF74FFE03009B0D013319002000FE
:104B4000FCF720FA03001800BD4603B090BDC04634
:104B500000093D000024F40000127A007C4F000898
:104B600080B582B000AF786039607B683A689A623D
:104B7000C046BD4602B080BD80B582B000AF78604F
:104B800039607B683A68DA62C046BD4602B080BDD3
:104B900080B582B000AF78607B685B6901221A4300
:104BA0007B685A61C046BD4602B080BD80B584B006
:104BB00000AF786039607B681B68FB607A6880238F
:104BC000DB059A4207D07B681E4A934203D07B687C
:104BD0001D4A934207D1FB68702293431A003B6839
:104BE0005B681343FB607A688023DB059A4207D039
:104BF0007B68144A934203D07B68134A934206D1E0
:104C0000FB68124A1A403B68DB681343FB607B6811
:104C1000FA681A603B689A687B6811001800FFF711
:104C2000ABFF3B681B881A007B6811001800FFF778
:104C300097FF7B681800FFF7ABFF00231800BD4605
:104C400004B080BD0008014000140140FFFCFFFFDC
:104C500080B582B000AF7860396039687868FCF759
:104C600091F903001A00064B013A5A60044B0022E6
:104C70009A60034B05221A60C046BD4602B080BD53
:104C800010E000E080B582B000AF7860FA239A00AF
:104C90007B6811001800FFF7DBFFC046BD4602B07D
:104CA00080BD000080B582B000AF7860034B7A68A9
:104CB0001A60C046BD4602B080BDC04664000020F8
:104CC00080B582B000AF78607B681B68012213401A
:104CD000012B01D1012300E000231800BD4602B0E2
:104CE00080BD000080B582B000AF786039607B681D
:104CF0005B68054A1A403B681A437B685A60C046A5
:104D0000BD4602B080BDC046FFCFFFFF80B582B078
:104D100000AF786039607B689B68054A1A403B6841
:104D20001A437B689A60C046BD4602B080BDC0464B
:104D3000FFFCFFFF80B586B000AFF860B9607A6015
:104D40003B607A6880231B029A421CD1BB685A00E0
:104D50003B685B08D31839681800FCF713F90300A7
:104D60009BB27B617B69104A13403B617B695B08A6
:104D70009BB21A00072313403A6913433B61FB6857
:104D80003A69DA600CE03B685A08BB68D3183968A6
:104D90001800FCF7F7F803009BB21A00FB68DA6012
:104DA000C046BD4606B080BDF0FF000080B584B0AF
:104DB00000AF786039600F23FB1801221A700023BE
:104DC000BB607B681800FFF77BFF031E45D17B6843
:104DD0001B68254A1A403B6859683B68DB681943E1
:104DE0003B681B6919433B689B690B431A437B680B
:104DF0001A603B689A687B6811001800FFF772FF21
:104E00003B685A697B6811001800FFF77FFF7B68D9
:104E1000164A934205D10320FFF7F8FC0300BB605C
:104E200008E07B68124A934204D10C20FFF7EEFCA5
:104E30000300BB60BB68002B0FD03B681B68002BD6
:104E40000BD00F23FB1800221A703B689A693B684D
:104E50001B68B9687868FFF76DFF0F23FB181B7894
:104E60001800BD4604B080BDF369FFEF0038014073
:104E7000004400400D488546002103E00C4B5B5880
:104E8000435004310B480C4B42189A42F6D30B4A5C
:104E900002E0002313600432094B9A42F9D3FEF773
:104EA00039F9FBF759F9FCF74DFCFEE7002000202B
:104EB000D44F000800000020680000206800002097
:104EC00034090020FEE70000F8B5C046F8BC08BC75
:104ED0009E467047F8B5C046F8BC08BC9E46704771
:104EE0004C45442070726F636573730D0A000000B7
:104EF00041707020737461727465640D0A00000063
:104F000049324320496E6974204661696C656421A9
:104F100000000000494D5520535720524556204966
:104F2000443A2025642025642E25640D0A000000E3
:104F300052656164696E673A202568750A0D000044
:104F40000000000000000000000000000000000061
:104F50000000000000000000000000000000000051
:104F60000000000000000000000000000102030437
:104F700006070809000000000102030403040608F4
:104F80000C10182030000000232D302B20000000D2
:104F9000686C4C0065666745464700003031323327
:104FA0003435363738394142434445460000000025
:104FB000303132333435363738396162636465668F
:044FC00000000000ED
:084FC40018C1FF7F010000008D
:044FCC0035010008A3
:044FD00009010008CB
:104FD40004000020000000000000000000000000A9
:104FE40000000000000000000000000000000000BD
:104FF40000000000000000000000000000000000AD
:10500400000000000000000000000000000000009C
:10501400000000000000000000000000000000008C
:10502400000000000000000000000000000000007C
:08503400000000000000200054
:0400000508004E752C
:00000001FF
