:020000040800F2
:1000000000200020311B0008811B0008811B000814
:1000100000000000000000000000000000000000E0
:10002000000000000000000000000000811B00082C
:100030000000000000000000811B0008811B000878
:10004000811B0008811B0008811B0008811B000820
:10005000811B0008811B0008811B0008811B000810
:10006000811B0008811B0008811B0008811B000800
:10007000811B0008811B000800000000AD11000872
:1000800000000000811B00080000000000000000CC
:10009000811B000800000000811B0008811B000874
:1000A000811B0008811B0008811B0008811B0008C0
:1000B000B90B0008811B0008811B0008811B000888
:1000C00010B5064C2378002B07D1054B002B02D02E
:1000D000044800E000BF0123237010BD6800002029
:1000E0000000000044240008044B10B5002B03D08E
:1000F0000349044800E000BF10BDC04600000000F6
:100100006C000020442400080023C25C0133002A54
:10011000FBD1581E7047000003B4714649084000E7
:100120004900095E49008E4403BC70470022430821
:100130008B4274D303098B425FD3030A8B4244D3AF
:10014000030B8B4228D3030C8B420DD3FF220902F1
:1001500012BA030C8B4202D31212090265D0030BB0
:100160008B4219D300E0090AC30B8B4201D3CB03A6
:10017000C01A5241830B8B4201D38B03C01A5241E8
:10018000430B8B4201D34B03C01A5241030B8B42EA
:1001900001D30B03C01A5241C30A8B4201D3CB02D5
:1001A000C01A5241830A8B4201D38B02C01A5241BA
:1001B000430A8B4201D34B02C01A5241030A8B42BD
:1001C00001D30B02C01A5241CDD2C3098B4201D3D5
:1001D000CB01C01A524183098B4201D38B01C01A53
:1001E000524143098B4201D34B01C01A52410309CA
:1001F0008B4201D30B01C01A5241C3088B4201D379
:10020000CB00C01A524183088B4201D38B00C01A25
:10021000524143088B4201D34B00C01A5241411A4C
:1002200000D20146524110467047FFE701B5002059
:1002300000F006F802BDC0460029F7D076E7704707
:100240007047C04680B584B000AF7860074B996BAB
:10025000064B7A680A439A63044B9B6B7A68134097
:10026000FB60FB68C046BD4604B080BD0010024084
:1002700080B584B000AF7860074B596B064B7A6845
:100280000A435A63044B5B6B7A681340FB60FB685C
:10029000C046BD4604B080BD0010024080B582B0AB
:1002A00000AF7860064B1B68064A13401900044BE8
:1002B0007A680A431A60C046BD4602B080BDC04697
:1002C00000700040FFE7FFFF80B500AF044B1A68E5
:1002D000034B01210A431A60C046BD4680BDC0469B
:1002E0000010024080B500AF054B1B68042213408C
:1002F000042B01D1012300E000231800BD4680BD7E
:100300000010024080B582B000AF7860064B5B6899
:10031000064A134019007B681A02034B0A435A60CD
:10032000C046BD4602B080BD00100240FFE0FFFFA6
:1003300080B582B000AF7860064BDB680322934340
:100340001900044B7A680A43DA60C046BD4602B021
:1003500080BDC0460010024080B500AF034BDB6893
:100360000C2213401800BD4680BDC046001002405C
:1003700080B582B000AF7860064BDB68F022934313
:100380001900044B7A680A43DA60C046BD4602B0E1
:1003900080BDC0460010024080B582B000AF7860DA
:1003A000064BDB68064A13401900044B7A680A437F
:1003B000DA60C046BD4602B080BDC04600100240B3
:1003C000FFF8FFFF80B582B000AF7860064BDB68B6
:1003D000064A13401900044B7A680A43DA60C046A3
:1003E000BD4602B080BDC04600100240FFC7FFFFFF
:1003F00080B582B000AF7860084BDB6C7A68120C75
:10040000D2431A4011007B681B041A0C034B0A43A9
:10041000DA64C046BD4602B080BDC046001002404E
:1004200080B500AF044B1A68034B802149040A438E
:100430001A60C046BD4680BD0010024080B500AFC6
:10044000074B1A6880239B041A4080239B049A421E
:1004500001D1012300E000231800BD4680BDC04645
:100460000010024080B584B000AFF860B9607A60D7
:10047000084BDB68084A13401900FA68BB681A4346
:100480007B681A43034B0A43DA60C046BD4604B09A
:1004900080BDC04600100240FFFF02FF80B582B061
:1004A00000AF7860064B1B68012293431900044B90
:1004B0007A680A431A60C046BD4602B080BDC04695
:1004C0000020024080B500AF034B1B68012213409F
:1004D0001800BD4680BDC0460020024080B500AF78
:1004E0000120FFF7DBFFC046FFF7ECFF0300012B05
:1004F000FAD180231B011800FFF7D0FEFFF7E4FEBE
:10050000C046FFF7EFFE0300012BFAD11020FFF7E2
:10051000F9FE8023DB031A0000210020FFF7A2FF71
:10052000FFF77EFFC046FFF789FF0300012BFAD1DA
:100530000320FFF7FDFEC046FFF70EFF03000C2B64
:10054000FAD10020FFF714FF0020FFF725FF00205D
:10055000FFF738FF074B180001F0F2F9054B1800C0
:1005600001F0FEF9C0231B031800FFF741FFC0464E
:10057000BD4680BD00366E0180B500AF0120FFF79B
:1005800077FE80235B051800FFF75CFEFFF7A6FFF0
:1005900000F088F8C046BD4680BD000080B5C2B0FE
:1005A00000AF00F0DBFD03007A1DFF321360174B34
:1005B0001B687A1DFF3212681100180000F0B6FDAA
:1005C0000200FA239B009A421CD3104B7A1DFF3283
:1005D00012681A600E4B1B68013301221A400C4B43
:1005E0001A600B4B1B68DBB2180000F082F8094A56
:1005F0003B1D1100180001F0F1FA3B1D180000F03E
:100600001BFB00E0C046BD4642B080BD8400002018
:10061000880000205C24000880B5C0B000AFFFF760
:10062000ABFF00F0BBFD00F0A9FA064A3B00110049
:10063000180001F0D3FA3B00180000F0FDFAFFF7B4
:10064000ADFFFCE76C24000880B584B000AF786093
:10065000074BD96A064B7A680A43DA62044BDB6AB5
:100660007A681340FB60FB68C046BD4604B080BD9D
:100670000010024080B582B000AF786039607B68BE
:100680003A689A61C046BD4602B080BD80B582B06E
:1006900000AF786039607B683A689A62C046BD46B0
:1006A00002B080BD80B586B000AF0120FFF7CCFF5F
:1006B0003B00180018231A00002101F087FA3B00C4
:1006C00020221A603B0001225A603B0000229A60FF
:1006D0003B000022DA603B0001221A613A00A023AD
:1006E000DB051100180000F03AFEC046BD4606B01A
:1006F00080BD80B582B000AF0200FB1D1A70FB1DEB
:100700001B78002B06D1A023DB0520211800FFF762
:10071000BDFF05E0A023DB0520211800FFF7AAFF9D
:10072000C046BD4602B080BD80B582B000AF0200B9
:10073000FB1D1A70FB1D1B787F2B09D8FB1D1B7836
:100740001A001F231A40044B012191400A001A602D
:10075000C046BD4602B080BD00E100E090B583B068
:1007600000AF02003960FB1D1A70FB1D1B787F2B48
:1007700028D82F4AFB1D1B785BB29B08C0339B0017
:100780009B58FA1D1278110003220A40D200FF2163
:1007900091400A00D2431A4011003B689B01FF229E
:1007A0001A40FB1D1B78180003230340DB009A400E
:1007B0001F48FB1D1B785BB29B080A43C0339B009C
:1007C0001A5031E01B4AFB1D1B7819000F230B4008
:1007D000083B9B0806339B00D31804331B68FA1DA3
:1007E0001278110003220A40D200FF2191400A0032
:1007F000D2431A4011003B689B01FF221A40FB1DA7
:100800001B78180003230340DB009A400948FB1DB6
:100810001B781C000F232340083B9B080A43063328
:100820009B00C31804331A60C046BD4603B090BD98
:1008300000E100E000ED00E080B584B000AF78603A
:10084000074B996B064B7A680A439A63044B9B6B80
:100850007A681340FB60FB68C046BD4604B080BDAB
:100860000010024080B584B000AF7860074BD96AB1
:10087000064B7A680A43DA62044BDB6A7A681340F3
:10088000FB60FB68C046BD4604B080BD001002405E
:1008900080B582B000AF78607B681B6801221A4384
:1008A0007B681A60C046BD4602B080BD80B582B08C
:1008B00000AF78607B685B68074A1A407B685A60C3
:1008C0007B689B682A2293431A007B689A60C04623
:1008D000BD4602B080BDC046FFB7FFFF80B582B005
:1008E00000AF78607B68DB6920221340202B01D1A8
:1008F000012300E000231800BD4602B080BD80B592
:1009000082B000AF78607B68DB6940221340402BE7
:1009100001D1012300E000231800BD4602B080BDD4
:1009200080B582B000AF78607B6804221A62C0464E
:10093000BD4602B080BD80B582B000AF78607B68F4
:1009400040221A62C046BD4602B080BD80B586B066
:1009500000AF7860EFF31083BB60BB687B6101235D
:10096000FB60FB6883F31088C0467B681B6820220D
:100970001A437B681A607B693B613B6983F310888B
:10098000C046C046BD4606B080BD80B586B000AF4B
:100990007860EFF31083BB60BB687B610123FB6071
:1009A000FB6883F31088C0467B681B6840221A43AB
:1009B0007B681A607B693B613B6983F31088C046A2
:1009C000C046BD4606B080BD80B582B000AF78603D
:1009D0007B685B6ADBB21800BD4602B080BD80B5A3
:1009E00082B000AF78600A00FB1C1A70FB1C1A78FA
:1009F0007B689A62C046BD4602B080BD90B58FB09C
:100A000000AF1C243B1918001C231A00002101F020
:100A1000DDF83B1D180018231A00002101F0D6F85C
:100A200080239B021800FFF707FF0120FFF71AFF42
:100A30003B1D0C221A603B1D02225A603B1D032203
:100A40009A603B1D0022DA603B1D00221A613B1DAB
:100A500004225A613A1DA023DB051100180000F0A2
:100A60007EFC3B19E12252021A6021007B18002211
:100A70005A607B1800229A607B180022DA607B188B
:100A80000C221A617B1800225A617B1800229A619D
:100A90007B18104A1900100000F0E6FF0D4B1800FB
:100AA000FFF704FF0B4B1800FFF7F2FE094B18008D
:100AB000FFF74CFF074B1800FFF767FF0A211C20C8
:100AC000FFF74CFE1C20FFF72FFEC046BD460FB0BF
:100AD00090BDC0460044004080B582B000AFF91D13
:100AE0000A4B0122180000F065F90300012B09D11F
:100AF000FB1D1B78064A19001000FFF770FF054B1D
:100B000001221A70C046BD4602B080BDA00400207C
:100B100000440040B404002080B500AF024B1B78B5
:100B20001800BD4680BDC046B404002080B584B026
:100B300000AF78603960EFF31083BB60BB68FB6087
:100B400072B6C0463A6879680A4B180000F0FAF8A5
:100B5000094B1B7801225340DBB2002B01D0FFF779
:100B6000BBFFFB68002B01D162B6C046C046BD4644
:100B700004B080BDA0040020B404002080B500AF04
:100B8000FFF73CFF80239A000749084B180000F04C
:100B9000B7F880239A000649064B180000F0B0F819
:100BA000C046BD4680BDC0468C0000208C0400209D
:100BB0008C020020A004002080B584B000AFEFF3C9
:100BC0001083BB60BB68FB6072B6C046174B180051
:100BD000FFF784FE031E11D0144B1800FFF7F4FE3C
:100BE00003001A00FB1D1A70104B1800FFF798FE47
:100BF000F91D0F4B0122180000F0A4F80B4B180050
:100C0000FFF77DFE031E08D00A4B00221A70074B27
:100C10001800FFF790FEFFF75FFFFB68002B01D184
:100C200062B6C046C046BD4604B080BD0044004028
:100C30008C040020B404002080B584B000AF78603C
:100C40007B681800FFF760FA0300FB60FA688023F6
:100C50009B009A4205D9FB68013B7A68D3180022B1
:100C60001A70FA687B6811001800FFF75FFFC04632
:100C7000FFF752FF031EFBD1C046C046BD4604B07D
:100C800080BD000080B500AF174B1A68164B80215D
:100C900049000A431A60144BDA68134B13490A409F
:100CA000DA60114B1A68104B11490A401A600E4B5A
:100CB0009A680D4B01218A439A600B4B1A680A4BC4
:100CC0000C490A401A60084BDA68074B0A490A4087
:100CD000DA60054B00221A61084B802212059A60E7
:100CE000C046BD4680BDC046001002400C40FF8893
:100CF000F6FFF6FEFFFFFBFFFFFF02FF00ED00E047
:100D000080B584B000AFF860B9607A607B68013B61
:100D10007A68134002D001235B420FE0FB68BA6897
:100D20001A60FB687A681A61FB6800225A60FB68E7
:100D300000229A60FB680022DA6000231800BD469A
:100D400004B080BD80B586B000AFF860B9607A604D
:100D5000FB68DA687B68D218FB681B699A4201D984
:100D6000002323E000237B6115E0BA687B69D21879
:100D7000FB681968FB685B68CB1812781A70FB680F
:100D80005B685A1CFB681B69013B1A40FB685A6090
:100D90007B6901337B617A697B689A42E5D3FB68A2
:100DA000DA687B68D218FB68DA607B681800BD4699
:100DB00006B080BD80B586B000AFF860B9607A60DB
:100DC000FB68DB687A689A4201D9002323E000239C
:100DD0007B6115E0FB681A68FB689B68D218B968EC
:100DE0007B69CB1812781A70FB689B685A1CFB68E9
:100DF0001B69013B1A40FB689A607B6901337B6188
:100E00007A697B689A42E5D3FB68DA687B68D21A14
:100E1000FB68DA607B681800BD4606B080BD000044
:100E200080B582B000AF0200FB1D1A70FB1D1B785D
:100E30007F2B09D8FB1D1B781A001F231A40044B77
:100E4000012191400A001A60C046BD4602B080BD33
:100E500000E100E090B583B000AF02003960FB1DF7
:100E60001A70FB1D1B787F2B28D82F4AFB1D1B787F
:100E70005BB29B08C0339B009B58FA1D127811008F
:100E800003220A40D200FF2191400A00D2431A40B7
:100E900011003B689B01FF221A40FB1D1B781800C4
:100EA00003230340DB009A401F48FB1D1B785BB205
:100EB0009B080A43C0339B001A5031E01B4AFB1DBC
:100EC0001B7819000F230B40083B9B0806339B003F
:100ED000D31804331B68FA1D1278110003220A404C
:100EE000D200FF2191400A00D2431A4011003B6812
:100EF0009B01FF221A40FB1D1B78180003230340AF
:100F0000DB009A400948FB1D1B781C000F2323407F
:100F1000083B9B080A4306339B00C31804331A603E
:100F2000C046BD4603B090BD00E100E000ED00E02A
:100F300080B584B000AF7860074B996B064B7A6838
:100F40000A439A63044B9B6B7A681340FB60FB680F
:100F5000C046BD4604B080BD0010024080B582B0DE
:100F600000AF78607B681B6801221A437B681A60B7
:100F7000C046BD4602B080BD80B582B000AF78608B
:100F80007B681B68022293431A007B681A60C04684
:100F9000BD4602B080BD80B582B000AF78607B688E
:100FA0001B6880221A437B681A60C046BD4602B0A7
:100FB00080BD000080B582B000AF786039607B688A
:100FC0009B68054A1A403B681A437B689A60C04692
:100FD000BD4602B080BDC046F8BFFFFF80B582B0FD
:100FE00000AF786039607B685B68702293431A00B9
:100FF0003B681A437B685A60C046BD4602B080BD5C
:1010000080B582B000AF78607B689B688022934394
:101010001A007B689A60C046BD4602B080BD80B5AC
:1010200082B000AF78607B68022252421A61C046EB
:10103000BD4602B080BD80B582B000AF78607B68ED
:10104000DB6801221A437B68DA60C046BD4602B005
:1010500080BD000080B584B000AF0120FFF768FFBD
:101060003B00180010231A00002100F0AFFD3B00E8
:1010700017221A803B0000225A603B001D4A9A60EA
:101080003B000022DA603A008023DB0511001800E3
:1010900000F0EAFB8023DB051800FFF77CFF8023CC
:1010A000DB0500211800FFF785FF8023DB05002109
:1010B0001800FFF793FF8023DB051800FFF7A0FF60
:1010C0008023DB051800FFF749FF8023DB051800AC
:1010D000FFF752FF8023DB051800FFF7ACFF042168
:1010E0000F20FFF7B7FE0F20FFF79AFEC046BD4660
:1010F00004B080BDFFFF000080B582B000AF786013
:1011000039603A687B689A4206D23A687B68D31A9B
:10111000054A9446634402E03A687B68D31A180093
:10112000BD4602B080BDC046FFFF000080B584B060
:1011300000AF786039603A687B6811001800FFF7EB
:10114000DBFF0300FB60FB68FA2291001800FEF74A
:10115000EDFF03001800BD4604B080BD80B584B02B
:1011600000AFEFF310837B607B68FB6072B6C04614
:10117000094B1A6813001B049A1A8023DB055B6A6B
:10118000D318BB60FB68002B01D162B6C046BB68B8
:101190001800BD4604B080BDB804002080B500AF83
:1011A000FFF758FFC046BD4680BD000080B582B045
:1011B00000AFEFF310833B603B687B6072B6C046C4
:1011C0008023DB051800FFF72AFF074B1B685A1C1A
:1011D000054B1A607B68002B01D162B6C046C04641
:1011E000BD4602B080BDC046B804002080B584B0C2
:1011F00000AFF860B9607A60FB681968BB685B4350
:101200001A0013005B009B18DB430B401A00BB68FD
:101210005B4379684B431A43FB681A60C046BD467E
:1012200004B080BD80B584B000AFF860B9607A606A
:10123000FB685B68BA68D2431A40BB6879684B4365
:101240001A43FB685A60C046BD4604B080BD80B5F5
:1012500084B000AFF860B9607A60FB689968BB68D9
:101260005B431A0013005B009B18DB430B401A0022
:10127000BB685B4379684B431A43FB689A60C0467E
:10128000BD4604B080BD80B584B000AFF860B960E1
:101290007A60FB68D968BB685B431A0013005B0087
:1012A0009B18DB430B401A00BB685B4379684B43D8
:1012B0001A43FB68DA60C046BD4604B080BD80B505
:1012C00084B000AFF860B9607A60FB68196ABB68E7
:1012D0005B43BA685343BA685A4313001B019B1A15
:1012E000DB430B401A00BB685B43B9684B43B968EA
:1012F0004B4379684B431A43FB681A62C046BD46AC
:1013000004B080BD80B584B000AFF860B9607A6089
:10131000FB68596ABB681B0ABA68120A5343BA6869
:10132000120A5343BA68120A5A4313001B019B1A4C
:10133000DB430B401A00BB681B0AB968090A4B4320
:10134000B968090A4B43B968090A4B4379684B43AA
:101350001A43FB685A62C046BD4604B080BD80B5E2
:1013600084B000AF786039600023FB600023BB606D
:1013700048E03B681B680121FA6891400A0013406D
:10138000BB60BB68002B3AD03B685B68012B03D085
:101390003B685B68022B0ED13B689A68B9687B6832
:1013A0001800FFF754FF3B6819683B68DA687B68F0
:1013B0001800FFF737FF3B681A69B9687B681800A7
:1013C000FFF761FF3B685B68022B11D1BB68FF2B05
:1013D00007D83B685A69B9687B681800FFF76FFF48
:1013E00006E03B685A69B9687B681800FFF78AFF16
:1013F0003B685A68B9687B681800FFF7F7FEFB681E
:101400000133FB603B681A68FB68DA40131EB0D1F9
:1014100000231800BD4604B080BD000080B500AFB9
:10142000054B1B6804221340042B01D1012300E06B
:1014300000231800BD4680BD0010024080B500AFFB
:10144000074B1A6D80239B001A4080239B009A4211
:1014500001D1012300E000231800BD4680BDC04635
:101460000010024080B500AF034B5A68E0231B0216
:1014700013401800BD4680BD0010024080B500AF8B
:10148000034BDB680C2213401800BD4680BDC046EC
:101490000010024080B500AF034BDB68F022134020
:1014A0001800BD4680BDC0460010024080B500AFA8
:1014B000034BDA68E023DB0013401800BD4680BD13
:1014C0000010024080B500AF034BDA68E0239B01B7
:1014D00013401800BD4680BD0010024080B582B0A8
:1014E00000AF7860054BDB6C7A681A407B681B04A0
:1014F00013431800BD4602B080BDC0460010024034
:1015000080B500AF034BDA6880235B0213401800FC
:10151000BD4680BD0010024080B500AF034BDA68C5
:10152000F0239B0313401800BD4680BD001002400D
:1015300080B500AF034BDA68C0231B0413401800CA
:10154000BD4680BD0010024080B500AF054B1B6852
:1015500010221340102B01D1012300E000231800BA
:10156000BD4680BD0010024080B584B000AF7860F9
:101570000023FB607B68032B39D17B681800FFF7E1
:10158000ADFF0300404A93421CD03F4A934221D80A
:101590003E4A934203D03E4A934205D01AE000F0FF
:1015A00083F80300FB6027E0FFF738FF031E20D01D
:1015B000FFF7CAFF031E02D0364BFB6019E0364B23
:1015C000FB6016E0FFF73AFF031E14D080231B02D6
:1015D000FB6010E000F068F80300180000F0A8F8C5
:1015E0000300180000F0CEF80300FB6004E0C046E2
:1015F00002E0C04600E0C0467B680C2B39D17B6816
:101600001800FFF76BFF0300244A93421CD0234AC3
:10161000934221D8224A934203D0224A934205D0D2
:101620001AE000F041F80300FB6027E0FFF7F6FE48
:10163000031E20D0FFF788FF031E02D0154BFB606E
:1016400019E0154BFB6016E0FFF7F8FE031E14D0FF
:1016500080231B02FB6010E000F026F80300180056
:1016600000F066F80300180000F078F80300FB6053
:1016700004E0C04602E0C04600E0C046FB68180037
:10168000BD4604B080BDC046030003000100030056
:101690000200030000093D000024F4000C000C00CF
:1016A00004000C0008000C0080B582B000AFFFF70A
:1016B000E5FE03000C2B20D024D8082B1AD021D80B
:1016C000002B02D0042B0BD01CE0FFF7CBFE030055
:1016D0005B0B0133802212029A4013007B601CE0F6
:1016E000FFF732FF031E02D00E4B7B6015E00E4B5E
:1016F0007B6012E00D4B7B600FE000F057F80300B9
:101700007B600AE0FFF7AEFE03005B0B0133802233
:1017100012029A4013007B60C0467B681800BD46E9
:1017200002B080BD00093D000024F40000127A00E0
:1017300080B582B000AF7860FFF7ACFE03001B09F4
:101740000F221340044AD35C1A007B68D340180070
:10175000BD4602B080BDC0467C24000880B582B082
:1017600000AF7860FFF7A2FE03001B0A044AD35CB7
:101770001A007B68D3401800BD4602B080BDC04649
:101780008C24000880B582B000AF7860FFF79AFE25
:101790000300DB0A044AD35C1A007B68D3401800BC
:1017A000BD4602B080BDC0468C24000890B583B011
:1017B00000AFFFF7A5FE03003B603B68002B09D19B
:1017C000FFF7C2FE031E02D0104B7B6005E0104BFA
:1017D0007B6002E00F4B7B60C046FFF79DFE03007D
:1017E0009B0C0D4AD35C1A007B6853431C00FFF727
:1017F0009FFE03009B0D013319002000FEF796FCAD
:1018000003001800BD4603B090BDC04600093D006E
:101810000024F40000127A009424000880B582B0FD
:1018200000AF786039607B683A689A62C046BD460E
:1018300002B080BD80B582B000AF786039607B684F
:101840003A68DA62C046BD4602B080BD80B582B05B
:1018500000AF78607B685B6901221A437B685A613C
:10186000C046BD4602B080BD80B584B000AF786090
:1018700039607B681B68FB607A688023DB059A42CD
:1018800007D07B681E4A934203D07B681D4A93426F
:1018900007D1FB68702293431A003B685B681343CF
:1018A000FB607A688023DB059A4207D07B68144A84
:1018B000934203D07B68134A934206D1FB68124AD5
:1018C0001A403B68DB681343FB607B68FA681A6068
:1018D0003B689A687B6811001800FFF7ABFF3B6814
:1018E0001B881A007B6811001800FFF797FF7B68C0
:1018F0001800FFF7ABFF00231800BD4604B080BD01
:101900000008014000140140FFFCFFFF80B582B0D9
:1019100000AF7860396039687868FEF707FC03002B
:101920001A00064B013A5A60044B00229A60034B9E
:1019300005221A60C046BD4602B080BD10E000E03E
:1019400080B582B000AF7860FA239A007B681100FE
:101950001800FFF7DBFFC046BD4602B080BD0000A7
:1019600080B582B000AF7860034B7A681A60C046D9
:10197000BD4602B080BDC0460000002080B582B0E8
:1019800000AF78607B681B6801221340012B01D1F6
:10199000012300E000231800BD4602B080BD000016
:1019A00080B582B000AF786039607B685B68054ABB
:1019B0001A403B681A437B685A60C046BD4602B075
:1019C00080BDC046FFCFFFFF80B582B000AF78601A
:1019D00039607B689B68054A1A403B681A437B68FC
:1019E0009A60C046BD4602B080BDC046FFFCFFFF06
:1019F00080B586B000AFF860B9607A603B607A6805
:101A000080231B029A421CD1BB685A003B685B08CA
:101A1000D31839681800FEF789FB03009BB27B617D
:101A20007B69104A13403B617B695B089BB21A00DB
:101A3000072313403A6913433B61FB683A69DA6054
:101A40000CE03B685A08BB68D31839681800FEF7E9
:101A50006DFB03009BB21A00FB68DA60C046BD460E
:101A600006B080BDF0FF000080B584B000AF7860A4
:101A700039600F23FB1801221A700023BB607B68BA
:101A80001800FFF77BFF031E45D17B681B68254AC2
:101A90001A403B6859683B68DB6819433B681B691F
:101AA00019433B689B690B431A437B681A603B6888
:101AB0009A687B6811001800FFF772FF3B685A694B
:101AC0007B6811001800FFF77FFF7B68164A93427E
:101AD00005D10320FFF748FD0300BB6008E07B68E9
:101AE000124A934204D10C20FFF73EFD0300BB6075
:101AF000BB68002B0FD03B681B68002B0BD00F235B
:101B0000FB1800221A703B689A693B681B68B96829
:101B10007868FFF76DFF0F23FB181B781800BD4690
:101B200004B080BDF369FFEF00380140004400407D
:101B30000D488546002103E00C4B5B5843500431AF
:101B40000B480C4B42189A42F6D30B4A02E0002392
:101B500013600432094B9A42F9D3FFF793F800F06F
:101B600011F8FEF759FDFEE700200020D8240008F8
:101B7000000000206800002068000020D004002041
:101B8000FEE7000070B500260C4D0D4C641BA41040
:101B9000A64209D1002600F055FC0A4D0A4C641BF0
:101BA000A410A64205D170BDB300EB58984701368A
:101BB000EEE7B300EB5898470136F2E7D02400086F
:101BC000D0240008D0240008D42400080300821880
:101BD000934200D1704719700133F9E70EB400B594
:101BE0000B499CB01DAB02900690079104910948E7
:101BF000094904CB0591006802A9019300F070F82F
:101C00000023029A13701CB008BC03B01847C046EA
:101C1000FFFFFF7F040000200802FFFFF0B58E6881
:101C200085B007000C00039201939E423CD890239C
:101C30008A89DB001A4234D00969236860695B1A1B
:101C4000029303234343DD0FED18019B02980133F8
:101C50001B186D10AB4200D91D00530532D5290069
:101C6000380000F031FB061E09D10C233B604023F5
:101C70000120A28940421343A38105B0F0BD029A1E
:101C8000216900F0BAFAA389144A1A408023134349
:101C9000A381029B2661F61826606561019EED1AFC
:101CA000A560019B9E4200D9019E320003992068E5
:101CB00000F0ACFAA36800209B1BA36023689E1968
:101CC0002660DAE72A00380000F05CFB061EE0D14F
:101CD0003800216900F0AEFAC7E7C0467FFBFFFF7E
:101CE000F0B5A1B003901D008B890F0016001B06F4
:101CF00011D50B69002B0ED1402100F0E5FA3860B8
:101D00003861002805D10C23039A0138136021B0F3
:101D1000F0BD40237B61002308AC63612033637610
:101D20001033A376079535002B78002B01D0252B97
:101D300047D1AB1B0593B5420CD032003900039854
:101D4000FFF76CFF431C00D1AEE06269059B94462F
:101D5000634463612B78002B00D1A5E001220023AE
:101D60005242626004A9543252186E1C2360E36030
:101D7000A3601370A36505223178544800F032FA4D
:101D8000751C00281FD12268D30604D5532304A94B
:101D90005B1820211970130704D5532304A95B187D
:101DA0002B21197033782A2B16D0350000210A20F8
:101DB000E3682A786E1C303A092A4ED9002911D1DD
:101DC00017E00135B0E7414B2268C01A0123834078
:101DD00013432E002360CEE7079B191D1B68079154
:101DE000002B01DB0B9304E05B42E360022313430F
:101DF00023602B782E2B0AD16B782A2B35D1079BA9
:101E000002351A1D1B680792002B2BDB0993304EFD
:101E100003223000297800F0E5F9002806D040239D
:101E2000801B8340226801351343236029780622F2
:101E300028486E1C217600F0D5F900283CD0264BAE
:101E4000002B25D10722079B0733934308330793C1
:101E50006369049A9B18636165E743433500012178
:101E60009B18A6E701235B42D0E700230A201A0053
:101E70000135636029786E1C3039092903D9002B9C
:101E8000C5D00992C3E74243350001235218F1E758
:101E900007AB00933A002100104B039800E000BF0D
:101EA0000490049B0133D3D1BB890D985B0600D409
:101EB0002DE7012040422AE707AB00933A002100BA
:101EC000064B039800F07CF8EAE7C0469D24000822
:101ED000A3240008A7240008000000001D1C00081F
:101EE000F7B5150001938A680B690C0000909342C6
:101EF00000DA130022002B6043321278002A01D04E
:101F000001332B6023689B0602D52B6802332B60BC
:101F10002268062317001F401A4227D023004333AC
:101F20001B785A1E93412268920630D422000199F0
:101F30000098089E4332B047431C25D006232068F2
:101F40002A68E16800250340042B03D18D1AEB4376
:101F5000DB171D40A3682269934201DD9B1AED182F
:101F60000027BD4220D1002010E00137E3682A6835
:101F70009B1ABB42D2DD2200012301990098089EE2
:101F80001932B047431CF0D101204042FEBD302041
:101F9000E1184331087021005A1C45310978A21814
:101FA000433202331170C1E72200012301990098E6
:101FB000089E1A32B047431CE6D00137D1E7000033
:101FC000F0B58BB006920A00433207930590049255
:101FD0000A7E0C00109B782A07D8622A09D8002AAA
:101FE00000D1C1E0582A00D18CE026004236327080
:101FF00022E0100063381528F7D8FEF78DF8160098
:102000001F00F6FFF6FFF6FFF6FF1F00F6FFF6FFD4
:10201000F6FFF6FFA80036009A00F6FFF6FFB900BB
:10202000F6FF3600F6FFF6FF9E0026001A684236DD
:10203000111D1960136833700123A7E0086819683F
:102040000A1D05060BD50D681A60002D03DA2D2335
:10205000049A6D421370614B0A2703931BE00D68CD
:102060001A604106F1D52DB2EFE70D681968081D19
:1020700018602E0601D50D6803E06D06FBD50D68CE
:10208000ADB2564B082703936F2A00D002372300C6
:10209000002243331A706368A360002B03DB042221
:1020A000216891432160002D02D1049E002B0CD0A9
:1020B000049E28003900FEF7BFF8039B013E5B5CDD
:1020C00033702B0005009F42F3D9082F09D12368F4
:1020D000DB0706D563682269934202DC3023013EA8
:1020E0003370049B9B1B2361079B21000093059881
:1020F000069B09AAFFF7F4FE431C4CD10120404285
:102100000BB0F0BD45310A70344A03921A68216859
:1021100020CA1A60080616D5CB0702D5202319431A
:1021200021601027002DB2D1202322689A4322601B
:10213000ADE7202209680A43226022007821453257
:102140001170274AE1E74806E6D5ADB2E4E71A6820
:102150000D68101D4969186013682E0601D51960B5
:1021600002E06D06FBD519800023049E2361BBE7C6
:102170001A68111D1960166800213000626800F0AD
:1021800031F8002801D0801B606063682361002360
:10219000049A1370A8E72369320006990598079DF1
:1021A000A847431CAAD023689B0715D4099BE06865
:1021B0009842A5DA1800A3E72200012306990598A2
:1021C000079E1932B047431C98D00135E368099A3D
:1021D0009B1AAB42F0DCE9E70025F7E7AE240008E4
:1021E000BF240008C9B28218904201D10020704774
:1021F00003788B42FBD00130F6E7002310B59A42FA
:1022000000D110BDCC5CC4540133F8E710B588424E
:1022100002D98B18984203D3002307E08B5C8354C8
:10222000013AFBD210BDCC5CC45401339A42FAD1BE
:10223000F8E7000070B50500002910D00C1F2368D6
:10224000002B00DAE418280000F0D4F81D4A1368C7
:10225000002B05D163601460280000F0D3F870BD36
:10226000A34208D9216860188342F3D118685B68DB
:1022700041182160EEE71A005B68002B01D0A342F1
:10228000F9D911685018A0420BD1206809185018CC
:1022900011608342E0D118685B6841181160536097
:1022A000DAE7A04202D90C232B60D5E72168601839
:1022B000834203D118685B684118216063605460F1
:1022C000CAE7C046BC040020F8B50323CD1C9D43DB
:1022D000083506000C2D1FD20C25A9421ED830004F
:1022E00000F088F825490A681400002C1AD1244F00
:1022F0003B68002B04D12100300000F069F8386001
:102300002900300000F064F8431C2BD10C2330006E
:10231000336000F077F803E0002DDEDA0C23336041
:102320000020F8BD23685B1B19D40B2B03D9236055
:10233000E418256003E06368A2420ED10B60300010
:1023400000F060F8200007220B30231D9043C21AD2
:102350009842E6D01B1AA350E3E75360EFE7220050
:102360006468C2E70323C41C9C43A042E1D0211A45
:10237000300000F02DF8431CDBD1C7E7BC0400207F
:10238000C0040020F8B507000D001600002905D193
:102390001100FFF799FF04002000F8BD002A03D1C7
:1023A000FFF748FF3400F7E700F034F82C00B042A4
:1023B000F2D231003800FFF787FF041EECD029006D
:1023C0003200FFF71AFF29003800FFF733FFE3E779
:1023D000002370B5064D040008002B6000F024F8BF
:1023E000431C03D12B68002B00D0236070BDC04676
:1023F000C404002010B5024800F014F810BDC04617
:10240000C804002010B5024800F00DF810BDC04609
:10241000C80400200B1F1B68181F002B01DA0B5883
:10242000C018704770477047044A030010680028BE
:1024300002D0C318136070470148FAE7CC040020AB
:10244000D0040020F8B5C046F8BC08BC9E467047D2
:0C245000F8B5C046F8BC08BC9E467047BA
:10245C004C45442070726F636573730D0A00000065
:10246C0041707020737461727465640D0A00000011
:10247C000000000000000000010203040607080928
:10248C000000000001020304030406080C101820CD
:10249C0030232D302B2000686C4C00656667454658
:1024AC0047003031323334353637383941424344C2
:1024BC004546003031323334353637383961626352
:0424CC0064656600DD
:0424D000E900000817
:0424D400C10000083B
:1024D80000002000080000200000000000000000AC
:1024E80000000000000000000000000000000000E4
:1024F80000000000000000000000000000000000D4
:1025080000000000000000000000000000000000C3
:1025180000000000000000000000000000000000B3
:1025280000000000000000000000000000000000A3
:0825380000000000000000009B
:0400000508001B31A3
:00000001FF
